{
  "address": "0x36094db95822401A205589e8B7e77c786083c5A4",
  "abi": [
    {
      "inputs": [
        {
          "internalType": "contract MNS",
          "name": "_mns",
          "type": "address"
        },
        {
          "internalType": "contract IBaseRegistrar",
          "name": "_registrar",
          "type": "address"
        },
        {
          "internalType": "contract IMetadataService",
          "name": "_metadataService",
          "type": "address"
        }
      ],
      "stateMutability": "nonpayable",
      "type": "constructor"
    },
    {
      "anonymous": false,
      "inputs": [
        {
          "indexed": true,
          "internalType": "address",
          "name": "account",
          "type": "address"
        },
        {
          "indexed": true,
          "internalType": "address",
          "name": "operator",
          "type": "address"
        },
        {
          "indexed": false,
          "internalType": "bool",
          "name": "approved",
          "type": "bool"
        }
      ],
      "name": "ApprovalForAll",
      "type": "event"
    },
    {
      "anonymous": false,
      "inputs": [
        {
          "indexed": true,
          "internalType": "address",
          "name": "controller",
          "type": "address"
        },
        {
          "indexed": false,
          "internalType": "bool",
          "name": "active",
          "type": "bool"
        }
      ],
      "name": "ControllerChanged",
      "type": "event"
    },
    {
      "anonymous": false,
      "inputs": [
        {
          "indexed": true,
          "internalType": "bytes32",
          "name": "node",
          "type": "bytes32"
        },
        {
          "indexed": false,
          "internalType": "uint96",
          "name": "fuses",
          "type": "uint96"
        }
      ],
      "name": "FusesBurned",
      "type": "event"
    },
    {
      "anonymous": false,
      "inputs": [
        {
          "indexed": false,
          "internalType": "address",
          "name": "newMetadataService",
          "type": "address"
        }
      ],
      "name": "MetadataServicesSet",
      "type": "event"
    },
    {
      "anonymous": false,
      "inputs": [
        {
          "indexed": true,
          "internalType": "bytes32",
          "name": "node",
          "type": "bytes32"
        },
        {
          "indexed": false,
          "internalType": "address",
          "name": "owner",
          "type": "address"
        }
      ],
      "name": "NameUnwrapped",
      "type": "event"
    },
    {
      "anonymous": false,
      "inputs": [
        {
          "indexed": true,
          "internalType": "bytes32",
          "name": "node",
          "type": "bytes32"
        },
        {
          "indexed": false,
          "internalType": "bytes",
          "name": "name",
          "type": "bytes"
        },
        {
          "indexed": false,
          "internalType": "address",
          "name": "owner",
          "type": "address"
        },
        {
          "indexed": false,
          "internalType": "uint96",
          "name": "fuses",
          "type": "uint96"
        }
      ],
      "name": "NameWrapped",
      "type": "event"
    },
    {
      "anonymous": false,
      "inputs": [
        {
          "indexed": true,
          "internalType": "address",
          "name": "previousOwner",
          "type": "address"
        },
        {
          "indexed": true,
          "internalType": "address",
          "name": "newOwner",
          "type": "address"
        }
      ],
      "name": "OwnershipTransferred",
      "type": "event"
    },
    {
      "anonymous": false,
      "inputs": [
        {
          "indexed": true,
          "internalType": "address",
          "name": "operator",
          "type": "address"
        },
        {
          "indexed": true,
          "internalType": "address",
          "name": "from",
          "type": "address"
        },
        {
          "indexed": true,
          "internalType": "address",
          "name": "to",
          "type": "address"
        },
        {
          "indexed": false,
          "internalType": "uint256[]",
          "name": "ids",
          "type": "uint256[]"
        },
        {
          "indexed": false,
          "internalType": "uint256[]",
          "name": "values",
          "type": "uint256[]"
        }
      ],
      "name": "TransferBatch",
      "type": "event"
    },
    {
      "anonymous": false,
      "inputs": [
        {
          "indexed": true,
          "internalType": "address",
          "name": "operator",
          "type": "address"
        },
        {
          "indexed": true,
          "internalType": "address",
          "name": "from",
          "type": "address"
        },
        {
          "indexed": true,
          "internalType": "address",
          "name": "to",
          "type": "address"
        },
        {
          "indexed": false,
          "internalType": "uint256",
          "name": "id",
          "type": "uint256"
        },
        {
          "indexed": false,
          "internalType": "uint256",
          "name": "value",
          "type": "uint256"
        }
      ],
      "name": "TransferSingle",
      "type": "event"
    },
    {
      "anonymous": false,
      "inputs": [
        {
          "indexed": false,
          "internalType": "string",
          "name": "value",
          "type": "string"
        },
        {
          "indexed": true,
          "internalType": "uint256",
          "name": "id",
          "type": "uint256"
        }
      ],
      "name": "URI",
      "type": "event"
    },
    {
      "inputs": [
        {
          "internalType": "uint256",
          "name": "",
          "type": "uint256"
        }
      ],
      "name": "_tokens",
      "outputs": [
        {
          "internalType": "uint256",
          "name": "",
          "type": "uint256"
        }
      ],
      "stateMutability": "view",
      "type": "function"
    },
    {
      "inputs": [
        {
          "internalType": "bytes32",
          "name": "node",
          "type": "bytes32"
        },
        {
          "internalType": "uint96",
          "name": "fuseMask",
          "type": "uint96"
        }
      ],
      "name": "allFusesBurned",
      "outputs": [
        {
          "internalType": "bool",
          "name": "",
          "type": "bool"
        }
      ],
      "stateMutability": "view",
      "type": "function"
    },
    {
      "inputs": [
        {
          "internalType": "address",
          "name": "account",
          "type": "address"
        },
        {
          "internalType": "uint256",
          "name": "id",
          "type": "uint256"
        }
      ],
      "name": "balanceOf",
      "outputs": [
        {
          "internalType": "uint256",
          "name": "",
          "type": "uint256"
        }
      ],
      "stateMutability": "view",
      "type": "function"
    },
    {
      "inputs": [
        {
          "internalType": "address[]",
          "name": "accounts",
          "type": "address[]"
        },
        {
          "internalType": "uint256[]",
          "name": "ids",
          "type": "uint256[]"
        }
      ],
      "name": "balanceOfBatch",
      "outputs": [
        {
          "internalType": "uint256[]",
          "name": "",
          "type": "uint256[]"
        }
      ],
      "stateMutability": "view",
      "type": "function"
    },
    {
      "inputs": [
        {
          "internalType": "bytes32",
          "name": "node",
          "type": "bytes32"
        },
        {
          "internalType": "uint96",
          "name": "_fuses",
          "type": "uint96"
        }
      ],
      "name": "burnFuses",
      "outputs": [],
      "stateMutability": "nonpayable",
      "type": "function"
    },
    {
      "inputs": [
        {
          "internalType": "address",
          "name": "",
          "type": "address"
        }
      ],
      "name": "controllers",
      "outputs": [
        {
          "internalType": "bool",
          "name": "",
          "type": "bool"
        }
      ],
      "stateMutability": "view",
      "type": "function"
    },
    {
      "inputs": [
        {
          "internalType": "uint256",
          "name": "tokenId",
          "type": "uint256"
        }
      ],
      "name": "getData",
      "outputs": [
        {
          "internalType": "address",
          "name": "owner",
          "type": "address"
        },
        {
          "internalType": "uint96",
          "name": "fuses",
          "type": "uint96"
        }
      ],
      "stateMutability": "view",
      "type": "function"
    },
    {
      "inputs": [
        {
          "internalType": "bytes32",
          "name": "node",
          "type": "bytes32"
        }
      ],
      "name": "getFuses",
      "outputs": [
        {
          "internalType": "uint96",
          "name": "fuses",
          "type": "uint96"
        },
        {
          "internalType": "enum INameWrapper.NameSafety",
          "name": "vulnerability",
          "type": "uint8"
        },
        {
          "internalType": "bytes32",
          "name": "vulnerableNode",
          "type": "bytes32"
        }
      ],
      "stateMutability": "view",
      "type": "function"
    },
    {
      "inputs": [
        {
          "internalType": "address",
          "name": "account",
          "type": "address"
        },
        {
          "internalType": "address",
          "name": "operator",
          "type": "address"
        }
      ],
      "name": "isApprovedForAll",
      "outputs": [
        {
          "internalType": "bool",
          "name": "",
          "type": "bool"
        }
      ],
      "stateMutability": "view",
      "type": "function"
    },
    {
      "inputs": [
        {
          "internalType": "bytes32",
          "name": "node",
          "type": "bytes32"
        },
        {
          "internalType": "address",
          "name": "addr",
          "type": "address"
        }
      ],
      "name": "isTokenOwnerOrApproved",
      "outputs": [
        {
          "internalType": "bool",
          "name": "",
          "type": "bool"
        }
      ],
      "stateMutability": "view",
      "type": "function"
    },
    {
      "inputs": [],
      "name": "metadataService",
      "outputs": [
        {
          "internalType": "contract IMetadataService",
          "name": "",
          "type": "address"
        }
      ],
      "stateMutability": "view",
      "type": "function"
    },
    {
      "inputs": [],
      "name": "mns",
      "outputs": [
        {
          "internalType": "contract MNS",
          "name": "",
          "type": "address"
        }
      ],
      "stateMutability": "view",
      "type": "function"
    },
    {
      "inputs": [
        {
          "internalType": "bytes32",
          "name": "",
          "type": "bytes32"
        }
      ],
      "name": "names",
      "outputs": [
        {
          "internalType": "bytes",
          "name": "",
          "type": "bytes"
        }
      ],
      "stateMutability": "view",
      "type": "function"
    },
    {
      "inputs": [
        {
          "internalType": "address",
          "name": "to",
          "type": "address"
        },
        {
          "internalType": "address",
          "name": "",
          "type": "address"
        },
        {
          "internalType": "uint256",
          "name": "tokenId",
          "type": "uint256"
        },
        {
          "internalType": "bytes",
          "name": "data",
          "type": "bytes"
        }
      ],
      "name": "onERC721Received",
      "outputs": [
        {
          "internalType": "bytes4",
          "name": "",
          "type": "bytes4"
        }
      ],
      "stateMutability": "nonpayable",
      "type": "function"
    },
    {
      "inputs": [],
      "name": "owner",
      "outputs": [
        {
          "internalType": "address",
          "name": "",
          "type": "address"
        }
      ],
      "stateMutability": "view",
      "type": "function"
    },
    {
      "inputs": [
        {
          "internalType": "uint256",
          "name": "id",
          "type": "uint256"
        }
      ],
      "name": "ownerOf",
      "outputs": [
        {
          "internalType": "address",
          "name": "",
          "type": "address"
        }
      ],
      "stateMutability": "view",
      "type": "function"
    },
    {
      "inputs": [
        {
          "internalType": "string",
          "name": "label",
          "type": "string"
        },
        {
          "internalType": "address",
          "name": "wrappedOwner",
          "type": "address"
        },
        {
          "internalType": "uint256",
          "name": "duration",
          "type": "uint256"
        },
        {
          "internalType": "address",
          "name": "resolver",
          "type": "address"
        },
        {
          "internalType": "uint96",
          "name": "_fuses",
          "type": "uint96"
        }
      ],
      "name": "registerAndWrapBNB2LD",
      "outputs": [
        {
          "internalType": "uint256",
          "name": "expires",
          "type": "uint256"
        }
      ],
      "stateMutability": "nonpayable",
      "type": "function"
    },
    {
      "inputs": [],
      "name": "registrar",
      "outputs": [
        {
          "internalType": "contract IBaseRegistrar",
          "name": "",
          "type": "address"
        }
      ],
      "stateMutability": "view",
      "type": "function"
    },
    {
      "inputs": [
        {
          "internalType": "uint256",
          "name": "tokenId",
          "type": "uint256"
        },
        {
          "internalType": "uint256",
          "name": "duration",
          "type": "uint256"
        }
      ],
      "name": "renew",
      "outputs": [
        {
          "internalType": "uint256",
          "name": "expires",
          "type": "uint256"
        }
      ],
      "stateMutability": "nonpayable",
      "type": "function"
    },
    {
      "inputs": [],
      "name": "renounceOwnership",
      "outputs": [],
      "stateMutability": "nonpayable",
      "type": "function"
    },
    {
      "inputs": [
        {
          "internalType": "address",
          "name": "from",
          "type": "address"
        },
        {
          "internalType": "address",
          "name": "to",
          "type": "address"
        },
        {
          "internalType": "uint256[]",
          "name": "ids",
          "type": "uint256[]"
        },
        {
          "internalType": "uint256[]",
          "name": "amounts",
          "type": "uint256[]"
        },
        {
          "internalType": "bytes",
          "name": "data",
          "type": "bytes"
        }
      ],
      "name": "safeBatchTransferFrom",
      "outputs": [],
      "stateMutability": "nonpayable",
      "type": "function"
    },
    {
      "inputs": [
        {
          "internalType": "address",
          "name": "from",
          "type": "address"
        },
        {
          "internalType": "address",
          "name": "to",
          "type": "address"
        },
        {
          "internalType": "uint256",
          "name": "id",
          "type": "uint256"
        },
        {
          "internalType": "uint256",
          "name": "amount",
          "type": "uint256"
        },
        {
          "internalType": "bytes",
          "name": "data",
          "type": "bytes"
        }
      ],
      "name": "safeTransferFrom",
      "outputs": [],
      "stateMutability": "nonpayable",
      "type": "function"
    },
    {
      "inputs": [
        {
          "internalType": "address",
          "name": "operator",
          "type": "address"
        },
        {
          "internalType": "bool",
          "name": "approved",
          "type": "bool"
        }
      ],
      "name": "setApprovalForAll",
      "outputs": [],
      "stateMutability": "nonpayable",
      "type": "function"
    },
    {
      "inputs": [
        {
          "internalType": "address",
          "name": "controller",
          "type": "address"
        },
        {
          "internalType": "bool",
          "name": "active",
          "type": "bool"
        }
      ],
      "name": "setController",
      "outputs": [],
      "stateMutability": "nonpayable",
      "type": "function"
    },
    {
      "inputs": [
        {
          "internalType": "contract IMetadataService",
          "name": "_newMetadataService",
          "type": "address"
        }
      ],
      "name": "setMetadataService",
      "outputs": [],
      "stateMutability": "nonpayable",
      "type": "function"
    },
    {
      "inputs": [
        {
          "internalType": "bytes32",
          "name": "node",
          "type": "bytes32"
        },
        {
          "internalType": "address",
          "name": "owner",
          "type": "address"
        },
        {
          "internalType": "address",
          "name": "resolver",
          "type": "address"
        },
        {
          "internalType": "uint64",
          "name": "ttl",
          "type": "uint64"
        }
      ],
      "name": "setRecord",
      "outputs": [],
      "stateMutability": "nonpayable",
      "type": "function"
    },
    {
      "inputs": [
        {
          "internalType": "bytes32",
          "name": "node",
          "type": "bytes32"
        },
        {
          "internalType": "address",
          "name": "resolver",
          "type": "address"
        }
      ],
      "name": "setResolver",
      "outputs": [],
      "stateMutability": "nonpayable",
      "type": "function"
    },
    {
      "inputs": [
        {
          "internalType": "bytes32",
          "name": "parentNode",
          "type": "bytes32"
        },
        {
          "internalType": "bytes32",
          "name": "label",
          "type": "bytes32"
        },
        {
          "internalType": "address",
          "name": "owner",
          "type": "address"
        }
      ],
      "name": "setSubnodeOwner",
      "outputs": [
        {
          "internalType": "bytes32",
          "name": "",
          "type": "bytes32"
        }
      ],
      "stateMutability": "nonpayable",
      "type": "function"
    },
    {
      "inputs": [
        {
          "internalType": "bytes32",
          "name": "parentNode",
          "type": "bytes32"
        },
        {
          "internalType": "string",
          "name": "label",
          "type": "string"
        },
        {
          "internalType": "address",
          "name": "newOwner",
          "type": "address"
        },
        {
          "internalType": "uint96",
          "name": "_fuses",
          "type": "uint96"
        }
      ],
      "name": "setSubnodeOwnerAndWrap",
      "outputs": [
        {
          "internalType": "bytes32",
          "name": "node",
          "type": "bytes32"
        }
      ],
      "stateMutability": "nonpayable",
      "type": "function"
    },
    {
      "inputs": [
        {
          "internalType": "bytes32",
          "name": "parentNode",
          "type": "bytes32"
        },
        {
          "internalType": "bytes32",
          "name": "label",
          "type": "bytes32"
        },
        {
          "internalType": "address",
          "name": "owner",
          "type": "address"
        },
        {
          "internalType": "address",
          "name": "resolver",
          "type": "address"
        },
        {
          "internalType": "uint64",
          "name": "ttl",
          "type": "uint64"
        }
      ],
      "name": "setSubnodeRecord",
      "outputs": [],
      "stateMutability": "nonpayable",
      "type": "function"
    },
    {
      "inputs": [
        {
          "internalType": "bytes32",
          "name": "parentNode",
          "type": "bytes32"
        },
        {
          "internalType": "string",
          "name": "label",
          "type": "string"
        },
        {
          "internalType": "address",
          "name": "newOwner",
          "type": "address"
        },
        {
          "internalType": "address",
          "name": "resolver",
          "type": "address"
        },
        {
          "internalType": "uint64",
          "name": "ttl",
          "type": "uint64"
        },
        {
          "internalType": "uint96",
          "name": "_fuses",
          "type": "uint96"
        }
      ],
      "name": "setSubnodeRecordAndWrap",
      "outputs": [],
      "stateMutability": "nonpayable",
      "type": "function"
    },
    {
      "inputs": [
        {
          "internalType": "bytes32",
          "name": "node",
          "type": "bytes32"
        },
        {
          "internalType": "uint64",
          "name": "ttl",
          "type": "uint64"
        }
      ],
      "name": "setTTL",
      "outputs": [],
      "stateMutability": "nonpayable",
      "type": "function"
    },
    {
      "inputs": [
        {
          "internalType": "bytes4",
          "name": "interfaceId",
          "type": "bytes4"
        }
      ],
      "name": "supportsInterface",
      "outputs": [
        {
          "internalType": "bool",
          "name": "",
          "type": "bool"
        }
      ],
      "stateMutability": "view",
      "type": "function"
    },
    {
      "inputs": [
        {
          "internalType": "address",
          "name": "newOwner",
          "type": "address"
        }
      ],
      "name": "transferOwnership",
      "outputs": [],
      "stateMutability": "nonpayable",
      "type": "function"
    },
    {
      "inputs": [
        {
          "internalType": "bytes32",
          "name": "parentNode",
          "type": "bytes32"
        },
        {
          "internalType": "bytes32",
          "name": "label",
          "type": "bytes32"
        },
        {
          "internalType": "address",
          "name": "newController",
          "type": "address"
        }
      ],
      "name": "unwrap",
      "outputs": [],
      "stateMutability": "nonpayable",
      "type": "function"
    },
    {
      "inputs": [
        {
          "internalType": "bytes32",
          "name": "label",
          "type": "bytes32"
        },
        {
          "internalType": "address",
          "name": "newRegistrant",
          "type": "address"
        },
        {
          "internalType": "address",
          "name": "newController",
          "type": "address"
        }
      ],
      "name": "unwrapBNB2LD",
      "outputs": [],
      "stateMutability": "nonpayable",
      "type": "function"
    },
    {
      "inputs": [
        {
          "internalType": "uint256",
          "name": "tokenId",
          "type": "uint256"
        }
      ],
      "name": "uri",
      "outputs": [
        {
          "internalType": "string",
          "name": "",
          "type": "string"
        }
      ],
      "stateMutability": "view",
      "type": "function"
    },
    {
      "inputs": [
        {
          "internalType": "bytes",
          "name": "name",
          "type": "bytes"
        },
        {
          "internalType": "address",
          "name": "wrappedOwner",
          "type": "address"
        },
        {
          "internalType": "uint96",
          "name": "_fuses",
          "type": "uint96"
        },
        {
          "internalType": "address",
          "name": "resolver",
          "type": "address"
        }
      ],
      "name": "wrap",
      "outputs": [],
      "stateMutability": "nonpayable",
      "type": "function"
    },
    {
      "inputs": [
        {
          "internalType": "string",
          "name": "label",
          "type": "string"
        },
        {
          "internalType": "address",
          "name": "wrappedOwner",
          "type": "address"
        },
        {
          "internalType": "uint96",
          "name": "_fuses",
          "type": "uint96"
        },
        {
          "internalType": "address",
          "name": "resolver",
          "type": "address"
        }
      ],
      "name": "wrapBNB2LD",
      "outputs": [],
      "stateMutability": "nonpayable",
      "type": "function"
    }
  ],
  "transactionHash": "0x81c3ba62b6d096d0555b57a960e7a82c5944a3879557290385e5c97f0e30691b",
  "args": [
    "0xe94419A7f881Fe032d209A84D82103513459133C",
    "0xb0907De66a7f5582c9fa8e64C44dC25F3e0CEA4c",
    "0x124C8bE08113a1f5b02De21B65579323b1C7b88e"
  ],
  "numDeployments": 1,
  "solcInputHash": "e63a8dccf6f902a4ab6c87aa0843af30",
  "bytecode": "0x60c06040523480156200001157600080fd5b50604051620056c6380380620056c683398101604081905262000034916200029c565b6200003f3362000151565b6001600160a01b0383811660805282811660a052600480546001600160a01b03191691831691909117905562000088600080516020620056a683398151915260006041620001a1565b620000976000806041620001a1565b604080518082019091526001815260006020808301829052908052600590527f05b8ccbb9d4d8fb16ea74ce3c29a41f1b461fbdaff4714a0d9a8eb05499746bc90620000e4908262000394565b506040805180820190915260058082526301b1373160e11b602080840191909152600080516020620056a6833981519152600052527f51b17ae028fee44e2ca837a91f888e4ee54284e87ebc6cf33907a44c0c8bafbe9062000147908262000394565b5050505062000460565b600080546001600160a01b038381166001600160a01b0319831681178455604051919092169283917f8be0079c531659141344cd1fd0a4f28419497f9722a3daafe3b4186f6b6457e09190a35050565b6001600160601b0381161580620001ba57506001811615155b620002315760405162461bcd60e51b815260206004820152603760248201527f4e616d65577261707065723a2043616e6e6f74206275726e2066757365733a2060448201527f646f6d61696e2063616e20626520756e77726170706564000000000000000000606482015260840160405180910390fd5b620002498383836200024e60201b620031661760201c565b505050565b60a0816001600160601b0316901b826001600160a01b0316176001600085815260200190815260200160002081905550505050565b6001600160a01b03811681146200029957600080fd5b50565b600080600060608486031215620002b257600080fd5b8351620002bf8162000283565b6020850151909350620002d28162000283565b6040850151909250620002e58162000283565b809150509250925092565b634e487b7160e01b600052604160045260246000fd5b600181811c908216806200031b57607f821691505b6020821081036200033c57634e487b7160e01b600052602260045260246000fd5b50919050565b601f8211156200024957600081815260208120601f850160051c810160208610156200036b5750805b601f850160051c820191505b818110156200038c5782815560010162000377565b505050505050565b81516001600160401b03811115620003b057620003b0620002f0565b620003c881620003c1845462000306565b8462000342565b602080601f831160018114620004005760008415620003e75750858301515b600019600386901b1c1916600185901b1785556200038c565b600085815260208120601f198616915b82811015620004315788860151825594840194600190910190840162000410565b5085821015620004505787850151600019600388901b60f8161c191681555b5050505050600190811b01905550565b60805160a0516151786200052e6000396000818161041101528181610c9c01528181610e09015281816112160152818161141b01528181611bdb01528181611cb501528181611de401528181611e5a015281816129e90152613eaf015260008181610631015281816108aa01528181610a0601528181610c220152818161108701528181611fcb0152818161213f015281816123ee015281816124c8015281816125da0152818161265301528181612baa015281816132f6015281816135760152613f6801526151786000f3fe608060405234801561001057600080fd5b50600436106102ac5760003560e01c80635ef2c7f01161017b578063cf408823116100d8578063e985e9c51161008c578063f242432a11610071578063f242432a146106af578063f2fde38b146106c2578063f44779b9146106d557600080fd5b8063e985e9c514610653578063ed70554d1461068f57600080fd5b8063da8c229e116100bd578063da8c229e146105f6578063e0dba60f14610619578063e86a92771461062c57600080fd5b8063cf408823146105d0578063d8c9921a146105e357600080fd5b80639c50a2e91161012f578063a456f7d811610114578063a456f7d814610571578063c1cbf66f146105aa578063c475abff146105bd57600080fd5b80639c50a2e91461054b578063a22cb4651461055e57600080fd5b806363f033261161016057806363f033261461051f578063715018a6146105325780638da5cb5b1461053a57600080fd5b80635ef2c7f0146104ec5780636352211e146104ff57600080fd5b806320c38e2b1161022957806331ea1cf9116101dd5780634e1273f4116101c25780634e1273f4146104a657806353095467146104c657806357364568146104d957600080fd5b806331ea1cf9146104715780634ac07f411461048457600080fd5b80632b20e3971161020e5780632b20e3971461040c5780632bea156c1461044b5780632eb2c2d61461045e57600080fd5b806320c38e2b146103e6578063210a3d43146103f957600080fd5b80630e89341c11610280578063150b7a0211610265578063150b7a02146103945780631534e177146103c05780631896f70a146103d357600080fd5b80630e89341c1461035f57806314ab90381461037f57600080fd5b8062fdd58e146102b15780630178fe3f146102d757806301ffc9a71461032957806306ab59231461034c575b600080fd5b6102c46102bf366004614209565b6106e8565b6040519081526020015b60405180910390f35b6102fd6102e5366004614235565b6000908152600160205260409020549060a082901c90565b604080516001600160a01b0390931683526bffffffffffffffffffffffff9091166020830152016102ce565b61033c610337366004614264565b6107a3565b60405190151581526020016102ce565b6102c461035a366004614281565b6107e1565b61037261036d366004614235565b610a81565b6040516102ce919061430a565b61039261038d36600461433a565b610af5565b005b6103a76103a23660046143af565b610c8f565b6040516001600160e01b031990911681526020016102ce565b6103926103ce366004614422565b610eaa565b6103926103e136600461443f565b610f73565b6103726103f4366004614235565b6110b6565b6102c461040736600461448b565b611150565b6104337f000000000000000000000000000000000000000000000000000000000000000081565b6040516001600160a01b0390911681526020016102ce565b61039261045936600461450c565b6112dd565b61039261046c3660046146a9565b61147d565b61039261047f366004614757565b61180c565b610497610492366004614235565b61194f565b6040516102ce93929190614800565b6104b96104b4366004614844565b611a6a565b6040516102ce9190614942565b600454610433906001600160a01b031681565b6103926104e7366004614955565b611ba8565b6103926104fa3660046149d0565b611f04565b61043361050d366004614235565b60009081526001602052604090205490565b6102c461052d366004614a2b565b6121a8565b610392612271565b6000546001600160a01b0316610433565b610392610559366004614955565b612285565b61039261056c366004614a9d565b6126fb565b61033c61057f366004614acb565b6000918252600160205260409091205460a01c81166bffffffffffffffffffffffff90811691161490565b6103926105b8366004614acb565b6127e5565b6102c46105cb366004614aee565b612943565b6103926105de366004614b10565b612a65565b6103926105f1366004614281565b612c10565b61033c610604366004614422565b60036020526000908152604090205460ff1681565b610392610627366004614a9d565b612d77565b6104337f000000000000000000000000000000000000000000000000000000000000000081565b61033c610661366004614b61565b6001600160a01b03918216600090815260026020908152604080832093909416825291909152205460ff1690565b6102c461069d366004614235565b60016020526000908152604090205481565b6103926106bd366004614b8f565b612ddf565b6103926106d0366004614422565b61307a565b61033c6106e336600461443f565b61310a565b60006001600160a01b03831661076b5760405162461bcd60e51b815260206004820152602b60248201527f455243313135353a2062616c616e636520717565727920666f7220746865207a60448201527f65726f206164647265737300000000000000000000000000000000000000000060648201526084015b60405180910390fd5b6000828152600160205260409020546001600160a01b038085169082160361079757600191505061079d565b60009150505b92915050565b60006001600160e01b031982167f7f9e04b500000000000000000000000000000000000000000000000000000000148061079d575061079d826131a0565b6000836107ee813361310a565b6108575760405162461bcd60e51b815260206004820152603460248201527f4e616d65577261707065723a206d73672e73656e646572206973206e6f7420746044820152731a19481bdddb995c881bdc88185c1c1c9bdd995960621b6064820152608401610762565b60408051602080820188905281830187905282518083038401815260609092019092528051910120859085906000906040516302571be360e01b8152600481018290529091506000906001600160a01b037f000000000000000000000000000000000000000000000000000000000000000016906302571be390602401602060405180830381865afa1580156108f1573d6000803e3d6000fd5b505050506040513d601f19601f820116820180604052508101906109159190614bf8565b60008581526001602052604090205490915060a01c6001600160a01b038216158015610942575060208116155b8061096157506001600160a01b03821615801590610961575060408116155b6109c05760405162461bcd60e51b815260206004820152602a60248201527f4e616d65577261707065723a204f7065726174696f6e2070726f6869626974656044820152696420627920667573657360b01b6064820152608401610762565b6040517f06ab5923000000000000000000000000000000000000000000000000000000008152600481018b9052602481018a90526001600160a01b0389811660448301527f000000000000000000000000000000000000000000000000000000000000000016906306ab5923906064016020604051808303816000875af1158015610a4f573d6000803e3d6000fd5b505050506040513d601f19601f82011682018060405250810190610a739190614c15565b9a9950505050505050505050565b600480546040516303a24d0760e21b81529182018390526060916001600160a01b0390911690630e89341c90602401600060405180830381865afa158015610acd573d6000803e3d6000fd5b505050506040513d6000823e601f3d908101601f1916820160405261079d9190810190614c2e565b81610b00813361310a565b610b695760405162461bcd60e51b815260206004820152603460248201527f4e616d65577261707065723a206d73672e73656e646572206973206e6f7420746044820152731a19481bdddb995c881bdc88185c1c1c9bdd995960621b6064820152608401610762565b600083815260016020526040902054839060109060a01c80821615610be35760405162461bcd60e51b815260206004820152602a60248201527f4e616d65577261707065723a204f7065726174696f6e2070726f6869626974656044820152696420627920667573657360b01b6064820152608401610762565b6040517f14ab90380000000000000000000000000000000000000000000000000000000081526004810187905267ffffffffffffffff861660248201527f00000000000000000000000000000000000000000000000000000000000000006001600160a01b0316906314ab9038906044015b600060405180830381600087803b158015610c6f57600080fd5b505af1158015610c83573d6000803e3d6000fd5b50505050505050505050565b6000336001600160a01b037f00000000000000000000000000000000000000000000000000000000000000001614610d2f5760405162461bcd60e51b815260206004820152603e60248201527f4e616d65577261707065723a2057726170706572206f6e6c7920737570706f7260448201527f7473202e626e622045524337323120746f6b656e207472616e736665727300006064820152608401610762565b6000808080610d4086880188614cb0565b835160208501209397509195509350915088908114610ded5760405162461bcd60e51b815260206004820152604e60248201527f4e616d65577261707065723a20546f6b656e20696420646f6573206d6174636860448201527f206b656363616b286c6162656c29206f66206c6162656c2070726f766964656460648201527f20696e2064617461206669656c64000000000000000000000000000000000000608482015260a401610762565b604051630a3b53db60e21b8152600481018290523060248201527f00000000000000000000000000000000000000000000000000000000000000006001600160a01b0316906328ed4f6c90604401600060405180830381600087803b158015610e5557600080fd5b505af1158015610e69573d6000803e3d6000fd5b50505050610e7985858585613222565b507f150b7a02000000000000000000000000000000000000000000000000000000009b9a5050505050505050505050565b610eb2613369565b6001600160a01b038116610f085760405162461bcd60e51b815260206004820152601860248201527f616464726573732063616e206e6f74206265207a65726f2100000000000000006044820152606401610762565b6040516001600160a01b03821681527fcb153f9b80b7dd7a9299bd7fd1ebbc8928ab908e798433986cffdb468abc6e119060200160405180910390a16004805473ffffffffffffffffffffffffffffffffffffffff19166001600160a01b0392909216919091179055565b81610f7e813361310a565b610fe75760405162461bcd60e51b815260206004820152603460248201527f4e616d65577261707065723a206d73672e73656e646572206973206e6f7420746044820152731a19481bdddb995c881bdc88185c1c1c9bdd995960621b6064820152608401610762565b600083815260016020526040902054839060089060a01c808216156110615760405162461bcd60e51b815260206004820152602a60248201527f4e616d65577261707065723a204f7065726174696f6e2070726f6869626974656044820152696420627920667573657360b01b6064820152608401610762565b604051630c4b7b8560e11b8152600481018790526001600160a01b0386811660248301527f00000000000000000000000000000000000000000000000000000000000000001690631896f70a90604401610c55565b600560205260009081526040902080546110cf90614d37565b80601f01602080910402602001604051908101604052809291908181526020018280546110fb90614d37565b80156111485780601f1061111d57610100808354040283529160200191611148565b820191906000526020600020905b81548152906001019060200180831161112b57829003601f168201915b505050505081565b3360009081526003602052604081205460ff166111c05760405162461bcd60e51b815260206004820152602860248201527f436f6e74726f6c6c61626c653a2043616c6c6572206973206e6f74206120636f604482015267373a3937b63632b960c11b6064820152608401610762565b600087876040516111d2929190614d71565b6040519081900381207ffca247ac000000000000000000000000000000000000000000000000000000008252600482018190523060248301526044820187905291507f00000000000000000000000000000000000000000000000000000000000000006001600160a01b03169063fca247ac906064016020604051808303816000875af1158015611267573d6000803e3d6000fd5b505050506040513d601f19601f8201168201806040525081019061128b9190614c15565b91506112d188888080601f0160208091040260200160405190810160405280939291908181526020018383808284376000920191909152508a9250879150889050613222565b50509695505050505050565b604080517fdba5666821b22671387fe7ea11d7cc41ede85a5aa67c3e7b3d68ce6a661f389c60208083019190915281830186905282518083038401815260609092019092528051910120611331813361310a565b61139a5760405162461bcd60e51b815260206004820152603460248201527f4e616d65577261707065723a206d73672e73656e646572206973206e6f7420746044820152731a19481bdddb995c881bdc88185c1c1c9bdd995960621b6064820152608401610762565b604080517fdba5666821b22671387fe7ea11d7cc41ede85a5aa67c3e7b3d68ce6a661f389c602080830191909152818301879052825180830384018152606090920190925280519101206113ef905b836133c3565b6040516323b872dd60e01b81523060048201526001600160a01b038481166024830152604482018690527f000000000000000000000000000000000000000000000000000000000000000016906323b872dd90606401600060405180830381600087803b15801561145f57600080fd5b505af1158015611473573d6000803e3d6000fd5b5050505050505050565b81518351146114f45760405162461bcd60e51b815260206004820152602860248201527f455243313135353a2069647320616e6420616d6f756e7473206c656e6774682060448201527f6d69736d617463680000000000000000000000000000000000000000000000006064820152608401610762565b6001600160a01b0384166115585760405162461bcd60e51b815260206004820152602560248201527f455243313135353a207472616e7366657220746f20746865207a65726f206164604482015264647265737360d81b6064820152608401610762565b6001600160a01b03851633148061159257506001600160a01b038516600090815260026020908152604080832033845290915290205460ff165b6116045760405162461bcd60e51b815260206004820152603260248201527f455243313135353a207472616e736665722063616c6c6572206973206e6f742060448201527f6f776e6572206e6f7220617070726f76656400000000000000000000000000006064820152608401610762565b60005b835181101561179f57600084828151811061162457611624614d81565b60200260200101519050600084838151811061164257611642614d81565b6020026020010151905060008061166b846000908152600160205260409020549060a082901c90565b9150915061167a816004161590565b6116ec5760405162461bcd60e51b815260206004820152603760248201527f4e616d65577261707065723a204675736520616c7265616479206275726e656460448201527f20666f72207472616e7366657272696e67206f776e65720000000000000000006064820152608401610762565b82600114801561170d5750896001600160a01b0316826001600160a01b0316145b61177f5760405162461bcd60e51b815260206004820152602a60248201527f455243313135353a20696e73756666696369656e742062616c616e636520666f60448201527f72207472616e73666572000000000000000000000000000000000000000000006064820152608401610762565b61178a848a8361360d565b505050508061179890614dad565b9050611607565b50836001600160a01b0316856001600160a01b0316336001600160a01b03167f4a39dc06d4c0dbc64b70af90fd698a233a518aa5d07e595d983b8c0526c8f7fb86866040516117ef929190614dc6565b60405180910390a46118053386868686866136dd565b5050505050565b6000868660405161181e929190614d71565b60405180910390209050600061185b8983604080516020808201949094528082019290925280518083038201815260609092019052805191012090565b9050600061193489898080601f01602080910402602001604051908101604052809392919081815260200183838082843760009201829052508f815260056020526040902080549093506118b192509050614d37565b80601f01602080910402602001604051908101604052809291908181526020018280546118dd90614d37565b801561192a5780601f106118ff5761010080835404028352916020019161192a565b820191906000526020600020905b81548152906001019060200180831161190d57829003601f168201915b505050505061388a565b90506119438a84308989611f04565b610c838282898761395c565b600081815260056020526040812080548291829182919061196f90614d37565b80601f016020809104026020016040519081016040528092919081815260200182805461199b90614d37565b80156119e85780601f106119bd576101008083540402835291602001916119e8565b820191906000526020600020905b8154815290600101906020018083116119cb57829003601f168201915b505050505090506000815111611a405760405162461bcd60e51b815260206004820152601b60248201527f4e616d65577261707065723a204e616d65206e6f7420666f756e6400000000006044820152606401610762565b611a4b8160006139c2565b6000978852600160205260409097205460a01c97909695509350505050565b60608151835114611ae35760405162461bcd60e51b815260206004820152602960248201527f455243313135353a206163636f756e747320616e6420696473206c656e67746860448201527f206d69736d6174636800000000000000000000000000000000000000000000006064820152608401610762565b6000835167ffffffffffffffff811115611aff57611aff614543565b604051908082528060200260200182016040528015611b28578160200160208202803683370190505b50905060005b8451811015611ba057611b73858281518110611b4c57611b4c614d81565b6020026020010151858381518110611b6657611b66614d81565b60200260200101516106e8565b828281518110611b8557611b85614d81565b6020908102919091010152611b9981614dad565b9050611b2e565b509392505050565b60008585604051611bba929190614d71565b6040519081900381206331a9108f60e11b82526004820181905291506000907f00000000000000000000000000000000000000000000000000000000000000006001600160a01b031690636352211e90602401602060405180830381865afa158015611c2a573d6000803e3d6000fd5b505050506040513d601f19601f82011682018060405250810190611c4e9190614bf8565b90506001600160a01b038116331480611c8a57506001600160a01b038116600090815260026020908152604080832033845290915290205460ff165b80611d20575060405163e985e9c560e01b81526001600160a01b0382811660048301523360248301527f0000000000000000000000000000000000000000000000000000000000000000169063e985e9c590604401602060405180830381865afa158015611cfc573d6000803e3d6000fd5b505050506040513d601f19601f82011682018060405250810190611d209190614df4565b611db85760405162461bcd60e51b815260206004820152605f60248201527f4e616d65577261707065723a2053656e646572206973206e6f74206f776e657260448201527f206f7220617574686f726973656420627920746865206f776e6572206f72206160648201527f7574686f7269736564206f6e20746865202e626e622072656769737472617200608482015260a401610762565b6040516323b872dd60e01b81526001600160a01b038281166004830152306024830152604482018490527f000000000000000000000000000000000000000000000000000000000000000016906323b872dd90606401600060405180830381600087803b158015611e2857600080fd5b505af1158015611e3c573d6000803e3d6000fd5b5050604051630a3b53db60e21b8152600481018590523060248201527f00000000000000000000000000000000000000000000000000000000000000006001600160a01b031692506328ed4f6c9150604401600060405180830381600087803b158015611ea857600080fd5b505af1158015611ebc573d6000803e3d6000fd5b5050505061147387878080601f016020809104026020016040519081016040528093929190818152602001838380828437600092019190915250899250889150879050613222565b84611f0f813361310a565b611f785760405162461bcd60e51b815260206004820152603460248201527f4e616d65577261707065723a206d73672e73656e646572206973206e6f7420746044820152731a19481bdddb995c881bdc88185c1c1c9bdd995960621b6064820152608401610762565b60408051602080820189905281830188905282518083038401815260609092019092528051910120869086906000906040516302571be360e01b8152600481018290529091506000906001600160a01b037f000000000000000000000000000000000000000000000000000000000000000016906302571be390602401602060405180830381865afa158015612012573d6000803e3d6000fd5b505050506040513d601f19601f820116820180604052508101906120369190614bf8565b60008581526001602052604090205490915060a01c6001600160a01b038216158015612063575060208116155b8061208257506001600160a01b03821615801590612082575060408116155b6120e15760405162461bcd60e51b815260206004820152602a60248201527f4e616d65577261707065723a204f7065726174696f6e2070726f6869626974656044820152696420627920667573657360b01b6064820152608401610762565b6040517f5ef2c7f0000000000000000000000000000000000000000000000000000000008152600481018c9052602481018b90526001600160a01b038a81166044830152898116606483015267ffffffffffffffff891660848301527f00000000000000000000000000000000000000000000000000000000000000001690635ef2c7f09060a401600060405180830381600087803b15801561218357600080fd5b505af1158015612197573d6000803e3d6000fd5b505050505050505050505050505050565b60008085856040516121bb929190614d71565b604051809103902090506121f68782604080516020808201949094528082019290925280518083038201815260609092019052805191012090565b9150600061224c87878080601f01602080910402602001604051908101604052809392919081815260200183838082843760009201829052508d815260056020526040902080549093506118b192509050614d37565b90506122598883306107e1565b506122668382878761395c565b505095945050505050565b612279613369565b6122836000613acd565b565b6000806122cc600088888080601f0160208091040260200160405190810160405280939291908181526020018383808284376000920191909152509293925050613b2a9050565b9150915060006123158289898080601f0160208091040260200160405190810160405280939291908181526020018383808284376000920191909152509293925050613be19050565b604080516020808201849052818301879052825180830384018152606090920190925280519101209091507f245a9997de4dd98ec7801815ee2833be1217a5a55983c184c297319599e0c76482016123d55760405162461bcd60e51b815260206004820152603260248201527f4e616d65577261707065723a202e626e6220646f6d61696e73206e656564207460448201527f6f207573652077726170424e42324c44282900000000000000000000000000006064820152608401610762565b6040516302571be360e01b8152600481018290526000907f00000000000000000000000000000000000000000000000000000000000000006001600160a01b0316906302571be390602401602060405180830381865afa15801561243d573d6000803e3d6000fd5b505050506040513d601f19601f820116820180604052508101906124619190614bf8565b90506001600160a01b03811633148061249d57506001600160a01b038116600090815260026020908152604080832033845290915290205460ff165b80612533575060405163e985e9c560e01b81526001600160a01b0382811660048301523360248301527f0000000000000000000000000000000000000000000000000000000000000000169063e985e9c590604401602060405180830381865afa15801561250f573d6000803e3d6000fd5b505050506040513d601f19601f820116820180604052508101906125339190614df4565b6125a55760405162461bcd60e51b815260206004820152602e60248201527f4e616d65577261707065723a20446f6d61696e206973206e6f74206f776e656460448201527f206279207468652073656e6465720000000000000000000000000000000000006064820152608401610762565b6001600160a01b0386161561263757604051630c4b7b8560e11b8152600481018390526001600160a01b0387811660248301527f00000000000000000000000000000000000000000000000000000000000000001690631896f70a90604401600060405180830381600087803b15801561261e57600080fd5b505af1158015612632573d6000803e3d6000fd5b505050505b604051635b0fc9c360e01b8152600481018390523060248201527f00000000000000000000000000000000000000000000000000000000000000006001600160a01b031690635b0fc9c390604401600060405180830381600087803b15801561269f57600080fd5b505af11580156126b3573d6000803e3d6000fd5b50505050610c83828b8b8080601f0160208091040260200160405190810160405280939291908181526020018383808284376000920191909152508d92508c915061395c9050565b6001600160a01b03821633036127795760405162461bcd60e51b815260206004820152602960248201527f455243313135353a2073657474696e6720617070726f76616c2073746174757360448201527f20666f722073656c6600000000000000000000000000000000000000000000006064820152608401610762565b3360008181526002602090815260408083206001600160a01b03871680855290835292819020805460ff191686151590811790915590519081529192917f17307eab39ab6107e8899845ad3d59bd9653f200f220920489ca2b5937696c31910160405180910390a35050565b816127f0813361310a565b6128595760405162461bcd60e51b815260206004820152603460248201527f4e616d65577261707065723a206d73672e73656e646572206973206e6f7420746044820152731a19481bdddb995c881bdc88185c1c1c9bdd995960621b6064820152608401610762565b600083815260016020526040902054839060029060a01c808216156128d35760405162461bcd60e51b815260206004820152602a60248201527f4e616d65577261707065723a204f7065726174696f6e2070726f6869626974656044820152696420627920667573657360b01b6064820152608401610762565b60008681526001602052604090205460a081901c8681176128f589848361360d565b6040516bffffffffffffffffffffffff8216815289907fdba54097f6f5ef606cfe6bd170d2a04c0601dff6d94274d5f3879349978b9f449060200160405180910390a2505050505050505050565b3360009081526003602052604081205460ff166129b35760405162461bcd60e51b815260206004820152602860248201527f436f6e74726f6c6c61626c653a2043616c6c6572206973206e6f74206120636f604482015267373a3937b63632b960c11b6064820152608401610762565b6040517fc475abff00000000000000000000000000000000000000000000000000000000815260048101849052602481018390527f00000000000000000000000000000000000000000000000000000000000000006001600160a01b03169063c475abff906044016020604051808303816000875af1158015612a3a573d6000803e3d6000fd5b505050506040513d601f19601f82011682018060405250810190612a5e9190614c15565b9392505050565b83612a70813361310a565b612ad95760405162461bcd60e51b815260206004820152603460248201527f4e616d65577261707065723a206d73672e73656e646572206973206e6f7420746044820152731a19481bdddb995c881bdc88185c1c1c9bdd995960621b6064820152608401610762565b6000858152600160205260409020548590601c9060a01c80821615612b535760405162461bcd60e51b815260206004820152602a60248201527f4e616d65577261707065723a204f7065726174696f6e2070726f6869626974656044820152696420627920667573657360b01b6064820152608401610762565b6040517fcf408823000000000000000000000000000000000000000000000000000000008152600481018990526001600160a01b038881166024830152878116604483015267ffffffffffffffff871660648301527f0000000000000000000000000000000000000000000000000000000000000000169063cf40882390608401600060405180830381600087803b158015612bee57600080fd5b505af1158015612c02573d6000803e3d6000fd5b505050505050505050505050565b60408051602080820186905281830185905282518083038401815260609092019092528051910120612c42813361310a565b612cab5760405162461bcd60e51b815260206004820152603460248201527f4e616d65577261707065723a206d73672e73656e646572206973206e6f7420746044820152731a19481bdddb995c881bdc88185c1c1c9bdd995960621b6064820152608401610762565b7f245a9997de4dd98ec7801815ee2833be1217a5a55983c184c297319599e0c7648401612d405760405162461bcd60e51b815260206004820152603d60248201527f4e616d65577261707065723a202e626e62206e616d6573206d7573742062652060448201527f756e77726170706564207769746820756e77726170424e42324c4428290000006064820152608401610762565b60408051602080820187905281830186905282518083038401815260609092019092528051910120612d71906113e9565b50505050565b612d7f613369565b6001600160a01b038216600081815260036020908152604091829020805460ff191685151590811790915591519182527f4c97694570a07277810af7e5669ffd5f6a2d6b74b6e9a274b8b870fd5114cf8791015b60405180910390a25050565b6001600160a01b038416612e435760405162461bcd60e51b815260206004820152602560248201527f455243313135353a207472616e7366657220746f20746865207a65726f206164604482015264647265737360d81b6064820152608401610762565b6001600160a01b038516331480612e7d57506001600160a01b038516600090815260026020908152604080832033845290915290205460ff165b612eef5760405162461bcd60e51b815260206004820152602960248201527f455243313135353a2063616c6c6572206973206e6f74206f776e6572206e6f7260448201527f20617070726f76656400000000000000000000000000000000000000000000006064820152608401610762565b60008381526001602052604090205460a081901c6004811615612f7a5760405162461bcd60e51b815260206004820152603760248201527f4e616d65577261707065723a204675736520616c7265616479206275726e656460448201527f20666f72207472616e7366657272696e67206f776e65720000000000000000006064820152608401610762565b836001148015612f9b5750866001600160a01b0316826001600160a01b0316145b61300d5760405162461bcd60e51b815260206004820152602a60248201527f455243313135353a20696e73756666696369656e742062616c616e636520666f60448201527f72207472616e73666572000000000000000000000000000000000000000000006064820152608401610762565b61301885878361360d565b60408051868152602081018690526001600160a01b0380891692908a169133917fc3d58168c5ae7397731d063d5bbf3d657854427343f4c083240f7aacaa2d0f62910160405180910390a4613071338888888888613ca0565b50505050505050565b613082613369565b6001600160a01b0381166130fe5760405162461bcd60e51b815260206004820152602660248201527f4f776e61626c653a206e6577206f776e657220697320746865207a65726f206160448201527f64647265737300000000000000000000000000000000000000000000000000006064820152608401610762565b61310781613acd565b50565b600082815260016020526040812054826001600160a01b0316816001600160a01b0316148061315e57506001600160a01b0380821660009081526002602090815260408083209387168352929052205460ff165b949350505050565b60a0816bffffffffffffffffffffffff16901b826001600160a01b0316176001600085815260200190815260200160002081905550505050565b60006001600160e01b031982167fd9b67a260000000000000000000000000000000000000000000000000000000014806131ea57506001600160e01b031982166303a24d0760e21b145b8061079d57507f01ffc9a7000000000000000000000000000000000000000000000000000000006001600160e01b031983161461079d565b83516020850120600061327c7fdba5666821b22671387fe7ea11d7cc41ede85a5aa67c3e7b3d68ce6a661f389c83604080516020808201949094528082019290925280518083038201815260609092019052805191012090565b905060006132bf876040518060400160405280600581526020017f03626e620000000000000000000000000000000000000000000000000000000081525061388a565b90506001600160a01b0384161561335357604051630c4b7b8560e11b8152600481018390526001600160a01b0385811660248301527f00000000000000000000000000000000000000000000000000000000000000001690631896f70a90604401600060405180830381600087803b15801561333a57600080fd5b505af115801561334e573d6000803e3d6000fd5b505050505b61335f8282888861395c565b5050949350505050565b6000546001600160a01b031633146122835760405162461bcd60e51b815260206004820181905260248201527f4f776e61626c653a2063616c6c6572206973206e6f7420746865206f776e65726044820152606401610762565b6001600160a01b03811661343f5760405162461bcd60e51b815260206004820152602760248201527f4e616d65577261707065723a20546172676574206f776e65722063616e6e6f7460448201527f20626520307830000000000000000000000000000000000000000000000000006064820152608401610762565b306001600160a01b038216036134bd5760405162461bcd60e51b815260206004820152603c60248201527f4e616d65577261707065723a20546172676574206f776e65722063616e6e6f7460448201527f20626520746865204e616d655772617070657220636f6e7472616374000000006064820152608401610762565b60008281526001602081905260409091205460a01c8116036135475760405162461bcd60e51b815260206004820152602660248201527f4e616d65577261707065723a20446f6d61696e206973206e6f7420756e77726160448201527f707061626c6500000000000000000000000000000000000000000000000000006064820152608401610762565b61355082613d9c565b604051635b0fc9c360e01b8152600481018390526001600160a01b0382811660248301527f00000000000000000000000000000000000000000000000000000000000000001690635b0fc9c390604401600060405180830381600087803b1580156135ba57600080fd5b505af11580156135ce573d6000803e3d6000fd5b50506040516001600160a01b03841681528492507fee2ba1195c65bcf218a83d874335c6bf9d9067b4c672f3c3bf16cf40de7586c49150602001612dd3565b6bffffffffffffffffffffffff8116158061362a57506001811615155b61369c5760405162461bcd60e51b815260206004820152603760248201527f4e616d65577261707065723a2043616e6e6f74206275726e2066757365733a2060448201527f646f6d61696e2063616e20626520756e777261707065640000000000000000006064820152608401610762565b60008381526001602052604090206001600160a01b03831673ffffffffffffffffffffffffffffffffffffffff1960a084901b16179055505050565b505050565b6001600160a01b0384163b156138825760405163bc197c8160e01b81526001600160a01b0385169063bc197c81906137219089908990889088908890600401614e11565b6020604051808303816000875af192505050801561375c575060408051601f3d908101601f1916820190925261375991810190614e6f565b60015b61381157613768614e8c565b806308c379a0036137a1575061377c614ea8565b8061378757506137a3565b8060405162461bcd60e51b8152600401610762919061430a565b505b60405162461bcd60e51b815260206004820152603460248201527f455243313135353a207472616e7366657220746f206e6f6e204552433131353560448201527f526563656976657220696d706c656d656e7465720000000000000000000000006064820152608401610762565b6001600160e01b0319811663bc197c8160e01b146130715760405162461bcd60e51b815260206004820152602860248201527f455243313135353a204552433131353552656365697665722072656a656374656044820152676420746f6b656e7360c01b6064820152608401610762565b505050505050565b606060008351116138dd5760405162461bcd60e51b815260206004820152601c60248201527f4e616d65577261707065723a204c6162656c20746f6f2073686f7274000000006044820152606401610762565b61010083511061392f5760405162461bcd60e51b815260206004820152601b60248201527f4e616d65577261707065723a204c6162656c20746f6f206c6f6e6700000000006044820152606401610762565b8251838360405160200161394593929190614f32565b604051602081830303815290604052905092915050565b60008481526005602052604090206139748482614fd9565b50613980848383613e06565b837fe4119808efe03fb44c25cc9ce9a945dfe95dc48b05cdf4a351b586630c1e6b6a8484846040516139b493929190615099565b60405180910390a250505050565b6000808080806139d28787613b2a565b9092509050816139ee575060009350839250829150613ac69050565b60006139fa88836139c2565b604080516020808201869052818301899052825180830384018152606090920190925280519101209850909650945090506000856004811115613a3f57613a3f6147ea565b14613a4c57505050613ac6565b80613a61575060009350839250613ac6915050565b613a6c838783613e6f565b90955093506000856004811115613a8557613a856147ea565b14613a9257505050613ac6565b600081815260016020526040908190205460a01c811614613abb57600394509250613ac6915050565b506000935083925050505b9250925092565b600080546001600160a01b0383811673ffffffffffffffffffffffffffffffffffffffff19831681178455604051919092169283917f8be0079c531659141344cd1fd0a4f28419497f9722a3daafe3b4186f6b6457e09190a35050565b60008083518310613b7d5760405162461bcd60e51b815260206004820152601e60248201527f726561644c6162656c3a20496e646578206f7574206f6620626f756e647300006044820152606401610762565b6000848481518110613b9157613b91614d81565b016020015160f81c90508015613bbd57613bb685613bb08660016150d9565b83613ffb565b9250613bc2565b600092505b613bcc81856150d9565b613bd79060016150d9565b9150509250929050565b6000806000613bf08585613b2a565b909250905081613c625760018551613c0891906150ec565b8414613c565760405162461bcd60e51b815260206004820152601d60248201527f6e616d65686173683a204a756e6b20617420656e64206f66206e616d650000006044820152606401610762565b506000915061079d9050565b613c6c8582613be1565b6040805160208101929092528101839052606001604051602081830303815290604052805190602001209250505092915050565b6001600160a01b0384163b156138825760405163f23a6e6160e01b81526001600160a01b0385169063f23a6e6190613ce490899089908890889088906004016150ff565b6020604051808303816000875af1925050508015613d1f575060408051601f3d908101601f19168201909252613d1c91810190614e6f565b60015b613d2b57613768614e8c565b6001600160e01b0319811663f23a6e6160e01b146130715760405162461bcd60e51b815260206004820152602860248201527f455243313135353a204552433131353552656365697665722072656a656374656044820152676420746f6b656e7360c01b6064820152608401610762565b6000818152600160205260408120549050613db98260008061360d565b60408051838152600160208201526000916001600160a01b0384169133917fc3d58168c5ae7397731d063d5bbf3d657854427343f4c083240f7aacaa2d0f62910160405180910390a45050565b6000838152600160205260409020546001600160a01b03811615613e6457613e2d84613d9c565b6040516000815284907fee2ba1195c65bcf218a83d874335c6bf9d9067b4c672f3c3bf16cf40de7586c49060200160405180910390a25b612d7184848461401f565b6000807f245a9997de4dd98ec7801815ee2833be1217a5a55983c184c297319599e0c7648301613f48576040516331a9108f60e11b8152600481018690527f00000000000000000000000000000000000000000000000000000000000000006001600160a01b031690636352211e90602401602060405180830381865afa925050508015613f1a575060408051601f3d908101601f19168201909252613f1791810190614bf8565b60015b613f2957506004905082613ff3565b6001600160a01b0381163014613f46576001859250925050613ff3565b505b6040516302571be360e01b81526004810185905230906001600160a01b037f000000000000000000000000000000000000000000000000000000000000000016906302571be390602401602060405180830381865afa158015613faf573d6000803e3d6000fd5b505050506040513d601f19601f82011682018060405250810190613fd39190614bf8565b6001600160a01b031614613fec57506002905082613ff3565b5060009050805b935093915050565b825160009061400a83856150d9565b111561401557600080fd5b5091016020012090565b60008381526001602052604090205483906001600160a01b038116156140875760405162461bcd60e51b815260206004820152601f60248201527f455243313135353a206d696e74206f66206578697374696e6720746f6b656e006044820152606401610762565b6001600160a01b0384166141035760405162461bcd60e51b815260206004820152602160248201527f455243313135353a206d696e7420746f20746865207a65726f2061646472657360448201527f73000000000000000000000000000000000000000000000000000000000000006064820152608401610762565b306001600160a01b038516036141815760405162461bcd60e51b815260206004820152603460248201527f455243313135353a206e65774f776e65722063616e6e6f74206265207468652060448201527f4e616d655772617070657220636f6e74726163740000000000000000000000006064820152608401610762565b61418c82858561360d565b60408051838152600160208201526001600160a01b0386169160009133917fc3d58168c5ae7397731d063d5bbf3d657854427343f4c083240f7aacaa2d0f62910160405180910390a46118053360008685600160405180602001604052806000815250613ca0565b6001600160a01b038116811461310757600080fd5b6000806040838503121561421c57600080fd5b8235614227816141f4565b946020939093013593505050565b60006020828403121561424757600080fd5b5035919050565b6001600160e01b03198116811461310757600080fd5b60006020828403121561427657600080fd5b8135612a5e8161424e565b60008060006060848603121561429657600080fd5b833592506020840135915060408401356142af816141f4565b809150509250925092565b60005b838110156142d55781810151838201526020016142bd565b50506000910152565b600081518084526142f68160208601602086016142ba565b601f01601f19169290920160200192915050565b602081526000612a5e60208301846142de565b803567ffffffffffffffff8116811461433557600080fd5b919050565b6000806040838503121561434d57600080fd5b8235915061435d6020840161431d565b90509250929050565b60008083601f84011261437857600080fd5b50813567ffffffffffffffff81111561439057600080fd5b6020830191508360208285010111156143a857600080fd5b9250929050565b6000806000806000608086880312156143c757600080fd5b85356143d2816141f4565b945060208601356143e2816141f4565b935060408601359250606086013567ffffffffffffffff81111561440557600080fd5b61441188828901614366565b969995985093965092949392505050565b60006020828403121561443457600080fd5b8135612a5e816141f4565b6000806040838503121561445257600080fd5b823591506020830135614464816141f4565b809150509250929050565b80356bffffffffffffffffffffffff8116811461433557600080fd5b60008060008060008060a087890312156144a457600080fd5b863567ffffffffffffffff8111156144bb57600080fd5b6144c789828a01614366565b90975095505060208701356144db816141f4565b93506040870135925060608701356144f2816141f4565b91506145006080880161446f565b90509295509295509295565b60008060006060848603121561452157600080fd5b833592506020840135614533816141f4565b915060408401356142af816141f4565b634e487b7160e01b600052604160045260246000fd5b601f8201601f1916810167ffffffffffffffff8111828210171561457f5761457f614543565b6040525050565b600067ffffffffffffffff8211156145a0576145a0614543565b5060051b60200190565b600082601f8301126145bb57600080fd5b813560206145c882614586565b6040516145d58282614559565b83815260059390931b85018201928281019150868411156145f557600080fd5b8286015b8481101561461057803583529183019183016145f9565b509695505050505050565b600067ffffffffffffffff82111561463557614635614543565b50601f01601f191660200190565b600061464e8361461b565b60405161465b8282614559565b80925084815285858501111561467057600080fd5b8484602083013760006020868301015250509392505050565b600082601f83011261469a57600080fd5b612a5e83833560208501614643565b600080600080600060a086880312156146c157600080fd5b85356146cc816141f4565b945060208601356146dc816141f4565b9350604086013567ffffffffffffffff808211156146f957600080fd5b61470589838a016145aa565b9450606088013591508082111561471b57600080fd5b61472789838a016145aa565b9350608088013591508082111561473d57600080fd5b5061474a88828901614689565b9150509295509295909350565b600080600080600080600060c0888a03121561477257600080fd5b87359650602088013567ffffffffffffffff81111561479057600080fd5b61479c8a828b01614366565b90975095505060408801356147b0816141f4565b935060608801356147c0816141f4565b92506147ce6080890161431d565b91506147dc60a0890161446f565b905092959891949750929550565b634e487b7160e01b600052602160045260246000fd5b6bffffffffffffffffffffffff84168152606081016005841061483357634e487b7160e01b600052602160045260246000fd5b602082019390935260400152919050565b6000806040838503121561485757600080fd5b823567ffffffffffffffff8082111561486f57600080fd5b818501915085601f83011261488357600080fd5b8135602061489082614586565b60405161489d8282614559565b83815260059390931b85018201928281019150898411156148bd57600080fd5b948201945b838610156148e45785356148d5816141f4565b825294820194908201906148c2565b965050860135925050808211156148fa57600080fd5b50613bd7858286016145aa565b600081518084526020808501945080840160005b838110156149375781518752958201959082019060010161491b565b509495945050505050565b602081526000612a5e6020830184614907565b60008060008060006080868803121561496d57600080fd5b853567ffffffffffffffff81111561498457600080fd5b61499088828901614366565b90965094505060208601356149a4816141f4565b92506149b26040870161446f565b915060608601356149c2816141f4565b809150509295509295909350565b600080600080600060a086880312156149e857600080fd5b85359450602086013593506040860135614a01816141f4565b92506060860135614a11816141f4565b9150614a1f6080870161431d565b90509295509295909350565b600080600080600060808688031215614a4357600080fd5b85359450602086013567ffffffffffffffff811115614a6157600080fd5b614a6d88828901614366565b9095509350506040860135614a81816141f4565b9150614a1f6060870161446f565b801515811461310757600080fd5b60008060408385031215614ab057600080fd5b8235614abb816141f4565b9150602083013561446481614a8f565b60008060408385031215614ade57600080fd5b8235915061435d6020840161446f565b60008060408385031215614b0157600080fd5b50508035926020909101359150565b60008060008060808587031215614b2657600080fd5b843593506020850135614b38816141f4565b92506040850135614b48816141f4565b9150614b566060860161431d565b905092959194509250565b60008060408385031215614b7457600080fd5b8235614b7f816141f4565b91506020830135614464816141f4565b600080600080600060a08688031215614ba757600080fd5b8535614bb2816141f4565b94506020860135614bc2816141f4565b93506040860135925060608601359150608086013567ffffffffffffffff811115614bec57600080fd5b61474a88828901614689565b600060208284031215614c0a57600080fd5b8151612a5e816141f4565b600060208284031215614c2757600080fd5b5051919050565b600060208284031215614c4057600080fd5b815167ffffffffffffffff811115614c5757600080fd5b8201601f81018413614c6857600080fd5b8051614c738161461b565b604051614c808282614559565b828152866020848601011115614c9557600080fd5b614ca68360208301602087016142ba565b9695505050505050565b60008060008060808587031215614cc657600080fd5b843567ffffffffffffffff811115614cdd57600080fd5b8501601f81018713614cee57600080fd5b614cfd87823560208401614643565b9450506020850135614d0e816141f4565b9250614d1c6040860161446f565b91506060850135614d2c816141f4565b939692955090935050565b600181811c90821680614d4b57607f821691505b602082108103614d6b57634e487b7160e01b600052602260045260246000fd5b50919050565b8183823760009101908152919050565b634e487b7160e01b600052603260045260246000fd5b634e487b7160e01b600052601160045260246000fd5b600060018201614dbf57614dbf614d97565b5060010190565b604081526000614dd96040830185614907565b8281036020840152614deb8185614907565b95945050505050565b600060208284031215614e0657600080fd5b8151612a5e81614a8f565b60006001600160a01b03808816835280871660208401525060a06040830152614e3d60a0830186614907565b8281036060840152614e4f8186614907565b90508281036080840152614e6381856142de565b98975050505050505050565b600060208284031215614e8157600080fd5b8151612a5e8161424e565b600060033d1115614ea55760046000803e5060005160e01c5b90565b600060443d1015614eb65790565b6040516003193d81016004833e81513d67ffffffffffffffff8160248401118184111715614ee657505050505090565b8285019150815181811115614efe5750505050505090565b843d8701016020828501011115614f185750505050505090565b614f2760208286010187614559565b509095945050505050565b7fff000000000000000000000000000000000000000000000000000000000000008460f81b16815260008351614f6f8160018501602088016142ba565b835190830190614f868160018401602088016142ba565b0160010195945050505050565b601f8211156136d857600081815260208120601f850160051c81016020861015614fba5750805b601f850160051c820191505b8181101561388257828155600101614fc6565b815167ffffffffffffffff811115614ff357614ff3614543565b615007816150018454614d37565b84614f93565b602080601f83116001811461503c57600084156150245750858301515b600019600386901b1c1916600185901b178555613882565b600085815260208120601f198616915b8281101561506b5788860151825594840194600190910190840161504c565b50858210156150895787850151600019600388901b60f8161c191681555b5050505050600190811b01905550565b6060815260006150ac60608301866142de565b90506001600160a01b03841660208301526bffffffffffffffffffffffff83166040830152949350505050565b8082018082111561079d5761079d614d97565b8181038181111561079d5761079d614d97565b60006001600160a01b03808816835280871660208401525084604083015283606083015260a0608083015261513760a08301846142de565b97965050505050505056fea26469706673582212206a2bf2d689dac885832bb1d6be39359382e0252870981ede8c13b73e4c78d76964736f6c63430008110033dba5666821b22671387fe7ea11d7cc41ede85a5aa67c3e7b3d68ce6a661f389c",
  "devdoc": {
    "kind": "dev",
    "methods": {
      "allFusesBurned(bytes32,uint96)": {
        "params": {
          "fuseMask": "the fuses you want to check",
          "node": "namehash of the name"
        },
        "returns": {
          "_0": "Boolean of whether or not all the selected fuses are burned"
        }
      },
      "balanceOf(address,uint256)": {
        "details": "See {IERC1155-balanceOf}. Requirements: - `account` cannot be the zero address."
      },
      "balanceOfBatch(address[],uint256[])": {
        "details": "See {IERC1155-balanceOfBatch}. Requirements: - `accounts` and `ids` must have the same length."
      },
      "burnFuses(bytes32,uint96)": {
        "details": "Fuse burns are always additive and will not unburn already burnt fuses",
        "params": {
          "_fuses": "Fuses you want to burn.",
          "node": "namehash of the name. e.g. vitalik.xyz would be namehash('vitalik.xyz')"
        }
      },
      "getData(uint256)": {
        "details": "Returns the Name's owner address and fuses"
      },
      "getFuses(bytes32)": {
        "details": "Fuses are represented by a uint96 where each permission is represented by 1 bit      The interface has predefined fuses for all registry permissions, but additional      fuses can be added for other use cases",
        "params": {
          "node": "namehash of the name to check"
        },
        "returns": {
          "fuses": "A number that represents the permissions a name has",
          "vulnerability": "The type of vulnerability",
          "vulnerableNode": "Which node is vulnerable"
        }
      },
      "isApprovedForAll(address,address)": {
        "details": "See {IERC1155-isApprovedForAll}."
      },
      "isTokenOwnerOrApproved(bytes32,address)": {
        "params": {
          "addr": "which address to check permissions for",
          "node": "namehash of the name to check"
        },
        "returns": {
          "_0": "whether or not is owner or approved"
        }
      },
      "owner()": {
        "details": "Returns the address of the current owner."
      },
      "registerAndWrapBNB2LD(string,address,uint256,address,uint96)": {
        "details": "Registers a new .bnb second-level domain and wraps it.      Only callable by authorised controllers.",
        "params": {
          "duration": "The duration, in seconds, to register the name for.",
          "label": "The label to register (Eg, 'foo' for 'foo.bnb').",
          "resolver": "The resolver address to set on the MNS registry (optional).",
          "wrappedOwner": "The owner of the wrapped name."
        },
        "returns": {
          "expires": "The expiry date of the new name, in seconds since the Unix epoch."
        }
      },
      "renew(uint256,uint256)": {
        "details": "Renews a .bnb second-level domain.      Only callable by authorised controllers.",
        "params": {
          "duration": "The number of seconds to renew the name for.",
          "tokenId": "The hash of the label to register (eg, `keccak256('foo')`, for 'foo.bnb')."
        },
        "returns": {
          "expires": "The expiry date of the name, in seconds since the Unix epoch."
        }
      },
      "renounceOwnership()": {
        "details": "Leaves the contract without owner. It will not be possible to call `onlyOwner` functions. Can only be called by the current owner. NOTE: Renouncing ownership will leave the contract without an owner, thereby disabling any functionality that is only available to the owner."
      },
      "safeBatchTransferFrom(address,address,uint256[],uint256[],bytes)": {
        "details": "See {IERC1155-safeBatchTransferFrom}."
      },
      "safeTransferFrom(address,address,uint256,uint256,bytes)": {
        "details": "See {IERC1155-safeTransferFrom}."
      },
      "setApprovalForAll(address,bool)": {
        "details": "See {IERC1155-setApprovalForAll}."
      },
      "setRecord(bytes32,address,address,uint64)": {
        "params": {
          "node": "namehash of the name to set a record for",
          "owner": "newOwner in the registry",
          "resolver": "the resolver contract",
          "ttl": "ttl in the registry"
        }
      },
      "setResolver(bytes32,address)": {
        "params": {
          "node": "namehash of the name",
          "resolver": "the resolver contract"
        }
      },
      "setSubnodeOwner(bytes32,bytes32,address)": {
        "params": {
          "label": "labelhash of the subnode",
          "owner": "newOwner in the registry",
          "parentNode": "namehash of the parent name"
        }
      },
      "setSubnodeOwnerAndWrap(bytes32,string,address,uint96)": {
        "params": {
          "_fuses": "initial fuses for the wrapped subdomain",
          "label": "label of the subdomain as a string",
          "newOwner": "newOwner in the registry",
          "parentNode": "parent namehash of the subdomain"
        }
      },
      "setSubnodeRecord(bytes32,bytes32,address,address,uint64)": {
        "params": {
          "label": "labelhash of the subnode",
          "owner": "newOwner in the registry",
          "parentNode": "namehash of the parent name",
          "resolver": "the resolver contract in the registry",
          "ttl": "ttl in the registry"
        }
      },
      "setSubnodeRecordAndWrap(bytes32,string,address,address,uint64,uint96)": {
        "params": {
          "_fuses": "initial fuses for the wrapped subdomain",
          "label": "label of the subdomain as a string",
          "newOwner": "newOwner in the registry",
          "parentNode": "parent namehash of the subdomain",
          "resolver": "resolver contract in the registry",
          "ttl": "ttl in the regsitry"
        }
      },
      "setTTL(bytes32,uint64)": {
        "params": {
          "node": "namehash of the name",
          "ttl": "TTL in the registry"
        }
      },
      "transferOwnership(address)": {
        "details": "Transfers ownership of the contract to a new account (`newOwner`). Can only be called by the current owner."
      },
      "unwrap(bytes32,bytes32,address)": {
        "details": "Can be called by the owner in the wrapper or an authorised caller in the wrapper",
        "params": {
          "label": "label as a string of the .bnb domain to wrap e.g. vitalik.xyz would be 'vitalik'",
          "newController": "sets the owner in the registry to this address",
          "parentNode": "parent namehash of the name to wrap e.g. vitalik.xyz would be namehash('xyz')"
        }
      },
      "unwrapBNB2LD(bytes32,address,address)": {
        "details": "Can be called by the owner in the wrapper or an authorised caller in the wrapper",
        "params": {
          "label": "label as a string of the .bnb domain to wrap e.g. vitalik.xyz would be 'vitalik'",
          "newController": "sets the owner in the registry to this address",
          "newRegistrant": "sets the owner in the .bnb registrar to this address"
        }
      },
      "uri(uint256)": {
        "returns": {
          "_0": "String uri of the metadata service"
        }
      },
      "wrap(bytes,address,uint96,address)": {
        "details": "Can be called by the owner in the registry or an authorised caller in the registry",
        "params": {
          "_fuses": "initial fuses to set represented as a number. Check getFuses() for more info",
          "name": "The name to wrap, in DNS format",
          "wrappedOwner": "Owner of the name in this contract"
        }
      },
      "wrapBNB2LD(string,address,uint96,address)": {
        "details": "Can be called by the owner of the name in the .bnb registrar or an authorised caller on the *      registrar",
        "params": {
          "_fuses": "initial fuses to set",
          "label": "label as a string of the .bnb domain to wrap",
          "wrappedOwner": "Owner of the name in this contract"
        }
      }
    },
    "version": 1
  },
  "userdoc": {
    "kind": "user",
    "methods": {
      "allFusesBurned(bytes32,uint96)": {
        "notice": "Checks all Fuses in the mask are burned for the node"
      },
      "burnFuses(bytes32,uint96)": {
        "notice": "Burns any fuse passed to this function for a name"
      },
      "getFuses(bytes32)": {
        "notice": "Gets fuse permissions for a specific name"
      },
      "isTokenOwnerOrApproved(bytes32,address)": {
        "notice": "Checks if owner or approved by owner"
      },
      "setMetadataService(address)": {
        "notice": "Set the metadata service. only admin can do this"
      },
      "setRecord(bytes32,address,address,uint64)": {
        "notice": "Sets records for the name in the MNS Registry"
      },
      "setResolver(bytes32,address)": {
        "notice": "Sets resolver contract in the registry"
      },
      "setSubnodeOwner(bytes32,bytes32,address)": {
        "notice": "Sets the subnode owner in the registry"
      },
      "setSubnodeOwnerAndWrap(bytes32,string,address,uint96)": {
        "notice": "Sets the subdomain owner in the registry and then wraps the subdomain"
      },
      "setSubnodeRecord(bytes32,bytes32,address,address,uint64)": {
        "notice": "Sets records for the subdomain in the MNS Registry"
      },
      "setSubnodeRecordAndWrap(bytes32,string,address,address,uint64,uint96)": {
        "notice": "Sets the subdomain owner in the registry with records and then wraps the subdomain"
      },
      "setTTL(bytes32,uint64)": {
        "notice": "Sets TTL in the registry"
      },
      "unwrap(bytes32,bytes32,address)": {
        "notice": "Unwraps a non .bnb domain, of any kind. Could be a DNSSEC name vitalik.xyz or a subdomain"
      },
      "unwrapBNB2LD(bytes32,address,address)": {
        "notice": "Unwraps a .bnb domain. e.g. vitalik.bnb"
      },
      "uri(uint256)": {
        "notice": "Get the metadata uri"
      },
      "wrap(bytes,address,uint96,address)": {
        "notice": "Wraps a non .bnb domain, of any kind. Could be a DNSSEC name vitalik.xyz or a subdomain"
      },
      "wrapBNB2LD(string,address,uint96,address)": {
        "notice": "Wraps a .bnb domain, creating a new token and sending the original ERC721 token to this *         contract"
      }
    },
    "version": 1
  },
  "storageLayout": {
    "storage": [
      {
        "astId": 444,
        "contract": "contracts/wrapper/NameWrapper.sol:NameWrapper",
        "label": "_owner",
        "offset": 0,
        "slot": "0",
        "type": "t_address"
      },
      {
        "astId": 15231,
        "contract": "contracts/wrapper/NameWrapper.sol:NameWrapper",
        "label": "_tokens",
        "offset": 0,
        "slot": "1",
        "type": "t_mapping(t_uint256,t_uint256)"
      },
      {
        "astId": 15237,
        "contract": "contracts/wrapper/NameWrapper.sol:NameWrapper",
        "label": "_operatorApprovals",
        "offset": 0,
        "slot": "2",
        "type": "t_mapping(t_address,t_mapping(t_address,t_bool))"
      },
      {
        "astId": 15171,
        "contract": "contracts/wrapper/NameWrapper.sol:NameWrapper",
        "label": "controllers",
        "offset": 0,
        "slot": "3",
        "type": "t_mapping(t_address,t_bool)"
      },
      {
        "astId": 16289,
        "contract": "contracts/wrapper/NameWrapper.sol:NameWrapper",
        "label": "metadataService",
        "offset": 0,
        "slot": "4",
        "type": "t_contract(IMetadataService)15989"
      },
      {
        "astId": 16294,
        "contract": "contracts/wrapper/NameWrapper.sol:NameWrapper",
        "label": "names",
        "offset": 0,
        "slot": "5",
        "type": "t_mapping(t_bytes32,t_bytes_storage)"
      }
    ],
    "types": {
      "t_address": {
        "encoding": "inplace",
        "label": "address",
        "numberOfBytes": "20"
      },
      "t_bool": {
        "encoding": "inplace",
        "label": "bool",
        "numberOfBytes": "1"
      },
      "t_bytes32": {
        "encoding": "inplace",
        "label": "bytes32",
        "numberOfBytes": "32"
      },
      "t_bytes_storage": {
        "encoding": "bytes",
        "label": "bytes",
        "numberOfBytes": "32"
      },
      "t_contract(IMetadataService)15989": {
        "encoding": "inplace",
        "label": "contract IMetadataService",
        "numberOfBytes": "20"
      },
      "t_mapping(t_address,t_bool)": {
        "encoding": "mapping",
        "key": "t_address",
        "label": "mapping(address => bool)",
        "numberOfBytes": "32",
        "value": "t_bool"
      },
      "t_mapping(t_address,t_mapping(t_address,t_bool))": {
        "encoding": "mapping",
        "key": "t_address",
        "label": "mapping(address => mapping(address => bool))",
        "numberOfBytes": "32",
        "value": "t_mapping(t_address,t_bool)"
      },
      "t_mapping(t_bytes32,t_bytes_storage)": {
        "encoding": "mapping",
        "key": "t_bytes32",
        "label": "mapping(bytes32 => bytes)",
        "numberOfBytes": "32",
        "value": "t_bytes_storage"
      },
      "t_mapping(t_uint256,t_uint256)": {
        "encoding": "mapping",
        "key": "t_uint256",
        "label": "mapping(uint256 => uint256)",
        "numberOfBytes": "32",
        "value": "t_uint256"
      },
      "t_uint256": {
        "encoding": "inplace",
        "label": "uint256",
        "numberOfBytes": "32"
      }
    }
  }
}