{
  "address": "0xFdE31Bd4Bf4A896826bE33C20D3c385FaA5FB6c5",
  "abi": [
    {
      "inputs": [
        {
          "internalType": "contract MNS",
          "name": "_mns",
          "type": "address"
        },
        {
          "internalType": "contract INameWrapper",
          "name": "wrapperAddress",
          "type": "address"
        },
        {
          "internalType": "address",
          "name": "_trustedETHController",
          "type": "address"
        },
        {
          "internalType": "address",
          "name": "_trustedReverseRegistrar",
          "type": "address"
        }
      ],
      "stateMutability": "nonpayable",
      "type": "constructor"
    },
    {
      "anonymous": false,
      "inputs": [
        {
          "indexed": true,
          "internalType": "bytes32",
          "name": "node",
          "type": "bytes32"
        },
        {
          "indexed": true,
          "internalType": "uint256",
          "name": "contentType",
          "type": "uint256"
        }
      ],
      "name": "ABIChanged",
      "type": "event"
    },
    {
      "anonymous": false,
      "inputs": [
        {
          "indexed": true,
          "internalType": "bytes32",
          "name": "node",
          "type": "bytes32"
        },
        {
          "indexed": false,
          "internalType": "address",
          "name": "a",
          "type": "address"
        }
      ],
      "name": "AddrChanged",
      "type": "event"
    },
    {
      "anonymous": false,
      "inputs": [
        {
          "indexed": true,
          "internalType": "bytes32",
          "name": "node",
          "type": "bytes32"
        },
        {
          "indexed": false,
          "internalType": "uint256",
          "name": "coinType",
          "type": "uint256"
        },
        {
          "indexed": false,
          "internalType": "bytes",
          "name": "newAddress",
          "type": "bytes"
        }
      ],
      "name": "AddressChanged",
      "type": "event"
    },
    {
      "anonymous": false,
      "inputs": [
        {
          "indexed": true,
          "internalType": "address",
          "name": "owner",
          "type": "address"
        },
        {
          "indexed": true,
          "internalType": "address",
          "name": "operator",
          "type": "address"
        },
        {
          "indexed": false,
          "internalType": "bool",
          "name": "approved",
          "type": "bool"
        }
      ],
      "name": "ApprovalForAll",
      "type": "event"
    },
    {
      "anonymous": false,
      "inputs": [
        {
          "indexed": true,
          "internalType": "bytes32",
          "name": "node",
          "type": "bytes32"
        },
        {
          "indexed": false,
          "internalType": "bytes",
          "name": "hash",
          "type": "bytes"
        }
      ],
      "name": "ContenthashChanged",
      "type": "event"
    },
    {
      "anonymous": false,
      "inputs": [
        {
          "indexed": true,
          "internalType": "bytes32",
          "name": "node",
          "type": "bytes32"
        },
        {
          "indexed": false,
          "internalType": "bytes",
          "name": "name",
          "type": "bytes"
        },
        {
          "indexed": false,
          "internalType": "uint16",
          "name": "resource",
          "type": "uint16"
        },
        {
          "indexed": false,
          "internalType": "bytes",
          "name": "record",
          "type": "bytes"
        }
      ],
      "name": "DNSRecordChanged",
      "type": "event"
    },
    {
      "anonymous": false,
      "inputs": [
        {
          "indexed": true,
          "internalType": "bytes32",
          "name": "node",
          "type": "bytes32"
        },
        {
          "indexed": false,
          "internalType": "bytes",
          "name": "name",
          "type": "bytes"
        },
        {
          "indexed": false,
          "internalType": "uint16",
          "name": "resource",
          "type": "uint16"
        }
      ],
      "name": "DNSRecordDeleted",
      "type": "event"
    },
    {
      "anonymous": false,
      "inputs": [
        {
          "indexed": true,
          "internalType": "bytes32",
          "name": "node",
          "type": "bytes32"
        },
        {
          "indexed": false,
          "internalType": "bytes",
          "name": "lastzonehash",
          "type": "bytes"
        },
        {
          "indexed": false,
          "internalType": "bytes",
          "name": "zonehash",
          "type": "bytes"
        }
      ],
      "name": "DNSZonehashChanged",
      "type": "event"
    },
    {
      "anonymous": false,
      "inputs": [
        {
          "indexed": true,
          "internalType": "bytes32",
          "name": "node",
          "type": "bytes32"
        },
        {
          "indexed": true,
          "internalType": "bytes4",
          "name": "interfaceID",
          "type": "bytes4"
        },
        {
          "indexed": false,
          "internalType": "address",
          "name": "implementer",
          "type": "address"
        }
      ],
      "name": "InterfaceChanged",
      "type": "event"
    },
    {
      "anonymous": false,
      "inputs": [
        {
          "indexed": true,
          "internalType": "bytes32",
          "name": "node",
          "type": "bytes32"
        },
        {
          "indexed": false,
          "internalType": "string",
          "name": "name",
          "type": "string"
        }
      ],
      "name": "NameChanged",
      "type": "event"
    },
    {
      "anonymous": false,
      "inputs": [
        {
          "indexed": true,
          "internalType": "address",
          "name": "previousOwner",
          "type": "address"
        },
        {
          "indexed": true,
          "internalType": "address",
          "name": "newOwner",
          "type": "address"
        }
      ],
      "name": "OwnershipTransferred",
      "type": "event"
    },
    {
      "anonymous": false,
      "inputs": [
        {
          "indexed": true,
          "internalType": "bytes32",
          "name": "node",
          "type": "bytes32"
        },
        {
          "indexed": false,
          "internalType": "bytes32",
          "name": "x",
          "type": "bytes32"
        },
        {
          "indexed": false,
          "internalType": "bytes32",
          "name": "y",
          "type": "bytes32"
        }
      ],
      "name": "PubkeyChanged",
      "type": "event"
    },
    {
      "anonymous": false,
      "inputs": [
        {
          "indexed": true,
          "internalType": "bytes32",
          "name": "node",
          "type": "bytes32"
        },
        {
          "indexed": true,
          "internalType": "string",
          "name": "indexedKey",
          "type": "string"
        },
        {
          "indexed": false,
          "internalType": "string",
          "name": "key",
          "type": "string"
        },
        {
          "indexed": false,
          "internalType": "string",
          "name": "value",
          "type": "string"
        }
      ],
      "name": "TextChanged",
      "type": "event"
    },
    {
      "anonymous": false,
      "inputs": [
        {
          "indexed": true,
          "internalType": "bytes32",
          "name": "node",
          "type": "bytes32"
        },
        {
          "indexed": false,
          "internalType": "uint64",
          "name": "newVersion",
          "type": "uint64"
        }
      ],
      "name": "VersionChanged",
      "type": "event"
    },
    {
      "inputs": [
        {
          "internalType": "bytes32",
          "name": "node",
          "type": "bytes32"
        },
        {
          "internalType": "uint256",
          "name": "contentTypes",
          "type": "uint256"
        }
      ],
      "name": "ABI",
      "outputs": [
        {
          "internalType": "uint256",
          "name": "",
          "type": "uint256"
        },
        {
          "internalType": "bytes",
          "name": "",
          "type": "bytes"
        }
      ],
      "stateMutability": "view",
      "type": "function"
    },
    {
      "inputs": [
        {
          "internalType": "bytes32",
          "name": "node",
          "type": "bytes32"
        }
      ],
      "name": "addr",
      "outputs": [
        {
          "internalType": "address payable",
          "name": "",
          "type": "address"
        }
      ],
      "stateMutability": "view",
      "type": "function"
    },
    {
      "inputs": [
        {
          "internalType": "bytes32",
          "name": "node",
          "type": "bytes32"
        },
        {
          "internalType": "uint256",
          "name": "coinType",
          "type": "uint256"
        }
      ],
      "name": "addr",
      "outputs": [
        {
          "internalType": "bytes",
          "name": "",
          "type": "bytes"
        }
      ],
      "stateMutability": "view",
      "type": "function"
    },
    {
      "inputs": [
        {
          "internalType": "bytes32",
          "name": "node",
          "type": "bytes32"
        }
      ],
      "name": "clearRecords",
      "outputs": [],
      "stateMutability": "nonpayable",
      "type": "function"
    },
    {
      "inputs": [
        {
          "internalType": "bytes32",
          "name": "node",
          "type": "bytes32"
        }
      ],
      "name": "contenthash",
      "outputs": [
        {
          "internalType": "bytes",
          "name": "",
          "type": "bytes"
        }
      ],
      "stateMutability": "view",
      "type": "function"
    },
    {
      "inputs": [
        {
          "internalType": "bytes32",
          "name": "node",
          "type": "bytes32"
        },
        {
          "internalType": "bytes32",
          "name": "name",
          "type": "bytes32"
        },
        {
          "internalType": "uint16",
          "name": "resource",
          "type": "uint16"
        }
      ],
      "name": "dnsRecord",
      "outputs": [
        {
          "internalType": "bytes",
          "name": "",
          "type": "bytes"
        }
      ],
      "stateMutability": "view",
      "type": "function"
    },
    {
      "inputs": [
        {
          "internalType": "bytes32",
          "name": "node",
          "type": "bytes32"
        },
        {
          "internalType": "bytes32",
          "name": "name",
          "type": "bytes32"
        }
      ],
      "name": "hasDNSRecords",
      "outputs": [
        {
          "internalType": "bool",
          "name": "",
          "type": "bool"
        }
      ],
      "stateMutability": "view",
      "type": "function"
    },
    {
      "inputs": [
        {
          "internalType": "bytes32",
          "name": "node",
          "type": "bytes32"
        },
        {
          "internalType": "bytes4",
          "name": "interfaceID",
          "type": "bytes4"
        }
      ],
      "name": "interfaceImplementer",
      "outputs": [
        {
          "internalType": "address",
          "name": "",
          "type": "address"
        }
      ],
      "stateMutability": "view",
      "type": "function"
    },
    {
      "inputs": [
        {
          "internalType": "address",
          "name": "account",
          "type": "address"
        },
        {
          "internalType": "address",
          "name": "operator",
          "type": "address"
        }
      ],
      "name": "isApprovedForAll",
      "outputs": [
        {
          "internalType": "bool",
          "name": "",
          "type": "bool"
        }
      ],
      "stateMutability": "view",
      "type": "function"
    },
    {
      "inputs": [
        {
          "internalType": "bytes[]",
          "name": "data",
          "type": "bytes[]"
        }
      ],
      "name": "multicall",
      "outputs": [
        {
          "internalType": "bytes[]",
          "name": "results",
          "type": "bytes[]"
        }
      ],
      "stateMutability": "nonpayable",
      "type": "function"
    },
    {
      "inputs": [
        {
          "internalType": "bytes32",
          "name": "nodehash",
          "type": "bytes32"
        },
        {
          "internalType": "bytes[]",
          "name": "data",
          "type": "bytes[]"
        }
      ],
      "name": "multicallWithNodeCheck",
      "outputs": [
        {
          "internalType": "bytes[]",
          "name": "results",
          "type": "bytes[]"
        }
      ],
      "stateMutability": "nonpayable",
      "type": "function"
    },
    {
      "inputs": [
        {
          "internalType": "bytes32",
          "name": "node",
          "type": "bytes32"
        }
      ],
      "name": "name",
      "outputs": [
        {
          "internalType": "string",
          "name": "",
          "type": "string"
        }
      ],
      "stateMutability": "view",
      "type": "function"
    },
    {
      "inputs": [],
      "name": "owner",
      "outputs": [
        {
          "internalType": "address",
          "name": "",
          "type": "address"
        }
      ],
      "stateMutability": "view",
      "type": "function"
    },
    {
      "inputs": [
        {
          "internalType": "bytes32",
          "name": "node",
          "type": "bytes32"
        }
      ],
      "name": "pubkey",
      "outputs": [
        {
          "internalType": "bytes32",
          "name": "x",
          "type": "bytes32"
        },
        {
          "internalType": "bytes32",
          "name": "y",
          "type": "bytes32"
        }
      ],
      "stateMutability": "view",
      "type": "function"
    },
    {
      "inputs": [
        {
          "internalType": "bytes32",
          "name": "",
          "type": "bytes32"
        }
      ],
      "name": "recordVersions",
      "outputs": [
        {
          "internalType": "uint64",
          "name": "",
          "type": "uint64"
        }
      ],
      "stateMutability": "view",
      "type": "function"
    },
    {
      "inputs": [
        {
          "internalType": "address",
          "name": "controller",
          "type": "address"
        }
      ],
      "name": "removeTrustedController",
      "outputs": [],
      "stateMutability": "nonpayable",
      "type": "function"
    },
    {
      "inputs": [],
      "name": "renounceOwnership",
      "outputs": [],
      "stateMutability": "nonpayable",
      "type": "function"
    },
    {
      "inputs": [
        {
          "internalType": "bytes32",
          "name": "node",
          "type": "bytes32"
        },
        {
          "internalType": "uint256",
          "name": "contentType",
          "type": "uint256"
        },
        {
          "internalType": "bytes",
          "name": "data",
          "type": "bytes"
        }
      ],
      "name": "setABI",
      "outputs": [],
      "stateMutability": "nonpayable",
      "type": "function"
    },
    {
      "inputs": [
        {
          "internalType": "bytes32",
          "name": "node",
          "type": "bytes32"
        },
        {
          "internalType": "uint256",
          "name": "coinType",
          "type": "uint256"
        },
        {
          "internalType": "bytes",
          "name": "a",
          "type": "bytes"
        }
      ],
      "name": "setAddr",
      "outputs": [],
      "stateMutability": "nonpayable",
      "type": "function"
    },
    {
      "inputs": [
        {
          "internalType": "bytes32",
          "name": "node",
          "type": "bytes32"
        },
        {
          "internalType": "address",
          "name": "a",
          "type": "address"
        }
      ],
      "name": "setAddr",
      "outputs": [],
      "stateMutability": "nonpayable",
      "type": "function"
    },
    {
      "inputs": [
        {
          "internalType": "address",
          "name": "operator",
          "type": "address"
        },
        {
          "internalType": "bool",
          "name": "approved",
          "type": "bool"
        }
      ],
      "name": "setApprovalForAll",
      "outputs": [],
      "stateMutability": "nonpayable",
      "type": "function"
    },
    {
      "inputs": [
        {
          "internalType": "bytes32",
          "name": "node",
          "type": "bytes32"
        },
        {
          "internalType": "bytes",
          "name": "hash",
          "type": "bytes"
        }
      ],
      "name": "setContenthash",
      "outputs": [],
      "stateMutability": "nonpayable",
      "type": "function"
    },
    {
      "inputs": [
        {
          "internalType": "bytes32",
          "name": "node",
          "type": "bytes32"
        },
        {
          "internalType": "bytes",
          "name": "data",
          "type": "bytes"
        }
      ],
      "name": "setDNSRecords",
      "outputs": [],
      "stateMutability": "nonpayable",
      "type": "function"
    },
    {
      "inputs": [
        {
          "internalType": "bytes32",
          "name": "node",
          "type": "bytes32"
        },
        {
          "internalType": "bytes4",
          "name": "interfaceID",
          "type": "bytes4"
        },
        {
          "internalType": "address",
          "name": "implementer",
          "type": "address"
        }
      ],
      "name": "setInterface",
      "outputs": [],
      "stateMutability": "nonpayable",
      "type": "function"
    },
    {
      "inputs": [
        {
          "internalType": "bytes32",
          "name": "node",
          "type": "bytes32"
        },
        {
          "internalType": "string",
          "name": "newName",
          "type": "string"
        }
      ],
      "name": "setName",
      "outputs": [],
      "stateMutability": "nonpayable",
      "type": "function"
    },
    {
      "inputs": [
        {
          "internalType": "address",
          "name": "newController",
          "type": "address"
        }
      ],
      "name": "setNewTrustedController",
      "outputs": [],
      "stateMutability": "nonpayable",
      "type": "function"
    },
    {
      "inputs": [
        {
          "internalType": "bytes32",
          "name": "node",
          "type": "bytes32"
        },
        {
          "internalType": "bytes32",
          "name": "x",
          "type": "bytes32"
        },
        {
          "internalType": "bytes32",
          "name": "y",
          "type": "bytes32"
        }
      ],
      "name": "setPubkey",
      "outputs": [],
      "stateMutability": "nonpayable",
      "type": "function"
    },
    {
      "inputs": [
        {
          "internalType": "bytes32",
          "name": "node",
          "type": "bytes32"
        },
        {
          "internalType": "string",
          "name": "key",
          "type": "string"
        },
        {
          "internalType": "string",
          "name": "value",
          "type": "string"
        }
      ],
      "name": "setText",
      "outputs": [],
      "stateMutability": "nonpayable",
      "type": "function"
    },
    {
      "inputs": [
        {
          "internalType": "bytes32",
          "name": "node",
          "type": "bytes32"
        },
        {
          "internalType": "bytes",
          "name": "hash",
          "type": "bytes"
        }
      ],
      "name": "setZonehash",
      "outputs": [],
      "stateMutability": "nonpayable",
      "type": "function"
    },
    {
      "inputs": [
        {
          "internalType": "bytes4",
          "name": "interfaceID",
          "type": "bytes4"
        }
      ],
      "name": "supportsInterface",
      "outputs": [
        {
          "internalType": "bool",
          "name": "",
          "type": "bool"
        }
      ],
      "stateMutability": "view",
      "type": "function"
    },
    {
      "inputs": [
        {
          "internalType": "bytes32",
          "name": "node",
          "type": "bytes32"
        },
        {
          "internalType": "string",
          "name": "key",
          "type": "string"
        }
      ],
      "name": "text",
      "outputs": [
        {
          "internalType": "string",
          "name": "",
          "type": "string"
        }
      ],
      "stateMutability": "view",
      "type": "function"
    },
    {
      "inputs": [
        {
          "internalType": "address",
          "name": "newOwner",
          "type": "address"
        }
      ],
      "name": "transferOwnership",
      "outputs": [],
      "stateMutability": "nonpayable",
      "type": "function"
    },
    {
      "inputs": [
        {
          "internalType": "bytes32",
          "name": "node",
          "type": "bytes32"
        }
      ],
      "name": "zonehash",
      "outputs": [
        {
          "internalType": "bytes",
          "name": "",
          "type": "bytes"
        }
      ],
      "stateMutability": "view",
      "type": "function"
    }
  ],
  "transactionHash": "0xf68cdeb7abb4882e9333cfadab536f0ef12d05fe5088f58feaa8ac30ef7c2570",
  "args": [
    "0xe94419A7f881Fe032d209A84D82103513459133C",
    "0x36094db95822401A205589e8B7e77c786083c5A4",
    "0x4861487Ae3198d97f40aa9A52C569561f01da7A8",
    "0xF3f4E5933302DC7dEaA87201251db681bE3a4653"
  ],
  "numDeployments": 1,
  "solcInputHash": "e63a8dccf6f902a4ab6c87aa0843af30",
  "bytecode": "0x60e06040523480156200001157600080fd5b50604051620031fe380380620031fe8339810160408190526200003491620000e3565b6200003f3362000078565b6001600160a01b0393841660805291831660a05282166000908152600c60205260409020805460ff191660011790551660c0526200014b565b600b80546001600160a01b038381166001600160a01b0319831681179093556040519116919082907f8be0079c531659141344cd1fd0a4f28419497f9722a3daafe3b4186f6b6457e090600090a35050565b6001600160a01b0381168114620000e057600080fd5b50565b60008060008060808587031215620000fa57600080fd5b84516200010781620000ca565b60208601519094506200011a81620000ca565b60408601519093506200012d81620000ca565b60608601519092506200014081620000ca565b939692955090935050565b60805160a05160c05161307c62000182600039600061186301526000818161193b01526119a1015260006118c4015261307c6000f3fe608060405234801561001057600080fd5b506004361061020b5760003560e01c8063715018a61161012a578063c8690233116100bd578063e32954eb1161008c578063e985e9c511610071578063e985e9c514610543578063f1cb7e061461057f578063f2fde38b1461059257600080fd5b8063e32954eb1461051d578063e59d895d1461053057600080fd5b8063c86902331461045b578063ce3decdc146104b4578063d5fa2b00146104c7578063d700ff33146104da57600080fd5b8063a22cb465116100f9578063a22cb46514610402578063a8fa568214610415578063ac9650d814610428578063bc1c58d11461044857600080fd5b8063715018a6146103c357806377372213146103cb5780638b95dd71146103de5780638da5cb5b146103f157600080fd5b80633603d758116101a257806359d1d43c1161017157806359d1d43c1461036a5780635c98042b1461038a578063623195b01461039d578063691f3431146103b057600080fd5b80633603d758146102e55780633b3b57de146102f857806344cba1861461030b5780634cbf6ba41461031e57600080fd5b8063124a319c116101de578063124a319c146102735780632203ab561461029e57806329cd62ea146102bf578063304e6ade146102d257600080fd5b806301ffc9a7146102105780630ac3f002146102385780630af179d71461024d57806310f13a8c14610260575b600080fd5b61022361021e3660046125d6565b6105a5565b60405190151581526020015b60405180910390f35b61024b610246366004612606565b6105b6565b005b61024b61025b366004612665565b6105e2565b61024b61026e3660046126b1565b6107ec565b61028661028136600461272b565b6108b9565b6040516001600160a01b03909116815260200161022f565b6102b16102ac366004612757565b610b65565b60405161022f9291906127c9565b61024b6102cd3660046127e2565b610c9c565b61024b6102e0366004612665565b610d37565b61024b6102f336600461280e565b610db3565b61028661030636600461280e565b610e56565b61024b610319366004612606565b610e88565b61022361032c366004612757565b6000828152602081815260408083205467ffffffffffffffff1683526006825280832094835293815283822092825291909152205461ffff16151590565b61037d610378366004612665565b610eb1565b60405161022f9190612827565b61037d61039836600461280e565b610f91565b61024b6103ab36600461283a565b611050565b61037d6103be36600461280e565b6110ed565b61024b611127565b61024b6103d9366004612665565b61113b565b61024b6103ec3660046128a3565b6111b7565b600b546001600160a01b0316610286565b61024b610410366004612967565b611297565b61037d6104233660046129a5565b611386565b61043b610436366004612a2a565b6113d4565b60405161022f9190612a6c565b61037d61045636600461280e565b6113e2565b61049f61046936600461280e565b6000818152602081815260408083205467ffffffffffffffff168352600982528083209383529290522080546001909101549091565b6040805192835260208301919091520161022f565b61024b6104c2366004612665565b61141c565b61024b6104d5366004612ace565b61155f565b6105046104e836600461280e565b60006020819052908152604090205467ffffffffffffffff1681565b60405167ffffffffffffffff909116815260200161022f565b61043b61052b366004612af3565b611586565b61024b61053e366004612b32565b61159b565b610223610551366004612b67565b6001600160a01b039182166000908152600d6020908152604080832093909416825291909152205460ff1690565b61037d61058d366004612757565b61164f565b61024b6105a0366004612606565b611717565b60006105b0826117a7565b92915050565b6105be6117e5565b6001600160a01b03166000908152600c60205260409020805460ff19166001179055565b826105ec8161183f565b6105f557600080fd5b600084815260208181526040808320548151601f870184900484028101840190925285825283926060928392859267ffffffffffffffff90911691839161065b9183918d908d90819084018382808284376000920191909152509293925050611a559050565b90505b80515160208201511015610785578661ffff166000036106c3578060400151965061068881611ab6565b94508460405160200161069b9190612b95565b6040516020818303038152906040528051906020012092506106bc81611ad7565b9350610777565b60006106ce82611ab6565b9050816040015161ffff168861ffff161415806106f257506106f08682611af3565b155b156107755761074e8c878a8e8e8080601f016020809104026020016040519081016040528093929190818152602001838380828437600092019190915250505060208801518d9150610745908290612bc7565b8b51158a611b11565b81604001519750816020015196508095508580519060200120935061077282611ad7565b94505b505b61078081611d7e565b61065e565b508351156107e0576107e08a85888c8c8080601f0160208091040260200160405190810160405280939291908181526020018383808284376000920191909152508c92506107d791508290508f612bc7565b89511588611b11565b50505050505050505050565b846107f68161183f565b6107ff57600080fd5b6000868152602081815260408083205467ffffffffffffffff168352600a82528083208984529091529081902090518491849161083f9089908990612bda565b9081526020016040518091039020918261085a929190612c72565b50848460405161086b929190612bda565b6040518091039020867f448bc014f1536726cf8d54ff3d6481ed3cbc683c2591ca204274009afa09b1a1878787876040516108a99493929190612d5b565b60405180910390a3505050505050565b6000828152602081815260408083205467ffffffffffffffff1683526007825280832085845282528083206001600160e01b0319851684529091528120546001600160a01b0316801561090d5790506105b0565b600061091885610e56565b90506001600160a01b038116610933576000925050506105b0565b6040516301ffc9a760e01b602482015260009081906001600160a01b0384169060440160408051601f198184030181529181526020820180517bffffffffffffffffffffffffffffffffffffffffffffffffffffffff166301ffc9a760e01b179052516109a09190612b95565b600060405180830381855afa9150503d80600081146109db576040519150601f19603f3d011682016040523d82523d6000602084013e6109e0565b606091505b50915091508115806109f3575060208151105b80610a35575080601f81518110610a0c57610a0c612d8d565b01602001517fff0000000000000000000000000000000000000000000000000000000000000016155b15610a475760009450505050506105b0565b6040516001600160e01b0319871660248201526001600160a01b0384169060440160408051601f198184030181529181526020820180517bffffffffffffffffffffffffffffffffffffffffffffffffffffffff166301ffc9a760e01b17905251610ab29190612b95565b600060405180830381855afa9150503d8060008114610aed576040519150601f19603f3d011682016040523d82523d6000602084013e610af2565b606091505b509092509050811580610b06575060208151105b80610b48575080601f81518110610b1f57610b1f612d8d565b01602001517fff0000000000000000000000000000000000000000000000000000000000000016155b15610b5a5760009450505050506105b0565b509095945050505050565b6000828152602081815260408083205467ffffffffffffffff168352600180835281842086855290925282206060915b848111610c7c5780851615801590610bc5575060008181526020839052604081208054610bc190612bea565b9050115b15610c745780826000838152602001908152602001600020808054610be990612bea565b80601f0160208091040260200160405190810160405280929190818152602001828054610c1590612bea565b8015610c625780601f10610c3757610100808354040283529160200191610c62565b820191906000526020600020905b815481529060010190602001808311610c4557829003601f168201915b50505050509050935093505050610c95565b60011b610b95565b5060006040518060200160405280600081525092509250505b9250929050565b82610ca68161183f565b610caf57600080fd5b604080518082018252848152602080820185815260008881528083528481205467ffffffffffffffff1681526009835284812089825283528490209251835551600190920191909155815185815290810184905285917f1d6f5e03d3f63eb58751986629a5439baee5079ff04f345becb66e23eb154e4691015b60405180910390a250505050565b82610d418161183f565b610d4a57600080fd5b6000848152602081815260408083205467ffffffffffffffff168352600382528083208784529091529020610d80838583612c72565b50837fe379c1624ed7e714cc0937528a32359d69d5281337765313dba4e081b72d75788484604051610d29929190612da3565b80610dbd8161183f565b610dc657600080fd5b6000828152602081905260408120805467ffffffffffffffff1691610dea83612db7565b82546101009290920a67ffffffffffffffff818102199093169183160217909155600084815260208181526040918290205491519190921681528492507fc6621ccb8f3f5a04bb6502154b2caf6adf5983fe76dfef1cfc9c42e3579db444910160405180910390a25050565b600080610e6483603c61164f565b90508051600003610e785750600092915050565b610e8181611e66565b9392505050565b610e906117e5565b6001600160a01b03166000908152600c60205260409020805460ff19169055565b6000838152602081815260408083205467ffffffffffffffff168352600a825280832086845290915290819020905160609190610ef19085908590612bda565b90815260200160405180910390208054610f0a90612bea565b80601f0160208091040260200160405190810160405280929190818152602001828054610f3690612bea565b8015610f835780601f10610f5857610100808354040283529160200191610f83565b820191906000526020600020905b815481529060010190602001808311610f6657829003601f168201915b505050505090509392505050565b6000818152602081815260408083205467ffffffffffffffff168352600482528083208484529091529020805460609190610fcb90612bea565b80601f0160208091040260200160405190810160405280929190818152602001828054610ff790612bea565b80156110445780601f1061101957610100808354040283529160200191611044565b820191906000526020600020905b81548152906001019060200180831161102757829003601f168201915b50505050509050919050565b8361105a8161183f565b61106357600080fd5b8361106f600182612bc7565b161561107a57600080fd5b6000858152602081815260408083205467ffffffffffffffff16835260018252808320888452825280832087845290915290206110b8838583612c72565b50604051849086907faa121bbeef5f32f5961a2a28966e769023910fc9479059ee3495d4c1a696efe390600090a35050505050565b6000818152602081815260408083205467ffffffffffffffff168352600882528083208484529091529020805460609190610fcb90612bea565b61112f6117e5565b6111396000611e8e565b565b826111458161183f565b61114e57600080fd5b6000848152602081815260408083205467ffffffffffffffff168352600882528083208784529091529020611184838583612c72565b50837fb7d29e911041e8d9b843369e890bcb72c9388692ba48b65ac54e7214c4c348f78484604051610d29929190612da3565b826111c18161183f565b6111ca57600080fd5b837f65412581168e88a1e60c6459d7f44ae83ad0832e670826c05a4e2476b57af75284846040516111fc9291906127c9565b60405180910390a2603c830361125357837f52d7d861f09ab3d26239d492e8968629f95e9e318cf0b73bfddc441522a15fd261123784611e66565b6040516001600160a01b03909116815260200160405180910390a25b6000848152602081815260408083205467ffffffffffffffff16835260028252808320878452825280832086845290915290206112908382612dde565b5050505050565b6001600160a01b038216330361131a5760405162461bcd60e51b815260206004820152602960248201527f455243313135353a2073657474696e6720617070726f76616c2073746174757360448201527f20666f722073656c66000000000000000000000000000000000000000000000060648201526084015b60405180910390fd5b336000818152600d602090815260408083206001600160a01b03871680855290835292819020805460ff191686151590811790915590519081529192917f17307eab39ab6107e8899845ad3d59bd9653f200f220920489ca2b5937696c31910160405180910390a35050565b6000838152602081815260408083205467ffffffffffffffff168352600582528083208684528252808320858452825280832061ffff851684529091529020805460609190610f0a90612bea565b6060610e8160008484611eed565b6000818152602081815260408083205467ffffffffffffffff168352600382528083208484529091529020805460609190610fcb90612bea565b826114268161183f565b61142f57600080fd5b6000848152602081815260408083205467ffffffffffffffff16808452600483528184208885529092528220805491929161146990612bea565b80601f016020809104026020016040519081016040528092919081815260200182805461149590612bea565b80156114e25780601f106114b7576101008083540402835291602001916114e2565b820191906000526020600020905b8154815290600101906020018083116114c557829003601f168201915b5050505067ffffffffffffffff841660009081526004602090815260408083208b8452909152902091925061151a9050858783612c72565b50857f8f15ed4b723ef428f250961da8315675b507046737e19319fc1a4d81bfe87f8582878760405161154f93929190612e9e565b60405180910390a2505050505050565b816115698161183f565b61157257600080fd5b61158183603c6103ec856120c6565b505050565b6060611593848484611eed565b949350505050565b826115a58161183f565b6115ae57600080fd5b6000848152602081815260408083205467ffffffffffffffff1683526007825280832087845282528083206001600160e01b0319871680855290835292819020805473ffffffffffffffffffffffffffffffffffffffff19166001600160a01b038716908117909155905190815286917f7c69f06bea0bdef565b709e93a147836b0063ba2dd89f02d0b7e8d931e6a6daa910160405180910390a350505050565b6000828152602081815260408083205467ffffffffffffffff168352600282528083208584528252808320848452909152902080546060919061169190612bea565b80601f01602080910402602001604051908101604052809291908181526020018280546116bd90612bea565b801561170a5780601f106116df5761010080835404028352916020019161170a565b820191906000526020600020905b8154815290600101906020018083116116ed57829003601f168201915b5050505050905092915050565b61171f6117e5565b6001600160a01b03811661179b5760405162461bcd60e51b815260206004820152602660248201527f4f776e61626c653a206e6577206f776e657220697320746865207a65726f206160448201527f64647265737300000000000000000000000000000000000000000000000000006064820152608401611311565b6117a481611e8e565b50565b60006001600160e01b031982167f59d1d43c0000000000000000000000000000000000000000000000000000000014806105b057506105b0826120ff565b600b546001600160a01b031633146111395760405162461bcd60e51b815260206004820181905260248201527f4f776e61626c653a2063616c6c6572206973206e6f7420746865206f776e65726044820152606401611311565b336000908152600c602052604081205460ff16806118855750336001600160a01b037f000000000000000000000000000000000000000000000000000000000000000016145b1561189257506001919050565b6040517f02571be3000000000000000000000000000000000000000000000000000000008152600481018390526000907f00000000000000000000000000000000000000000000000000000000000000006001600160a01b0316906302571be390602401602060405180830381865afa158015611913573d6000803e3d6000fd5b505050506040513d601f19601f820116820180604052508101906119379190612ece565b90507f00000000000000000000000000000000000000000000000000000000000000006001600160a01b0316816001600160a01b031603611a17576040517f6352211e000000000000000000000000000000000000000000000000000000008152600481018490527f00000000000000000000000000000000000000000000000000000000000000006001600160a01b031690636352211e90602401602060405180830381865afa1580156119f0573d6000803e3d6000fd5b505050506040513d601f19601f82011682018060405250810190611a149190612ece565b90505b6001600160a01b038116331480610e8157506001600160a01b0381166000908152600d6020908152604080832033845290915290205460ff16610e81565b611aa36040518060e001604052806060815260200160008152602001600061ffff168152602001600061ffff168152602001600063ffffffff16815260200160008152602001600081525090565b82815260c081018290526105b081611d7e565b602081015181516060916105b091611ace908261213d565b84519190612197565b60a081015160c08201516060916105b091611ace908290612bc7565b600081518351148015610e815750610e81836000846000875161220e565b865160208801206000611b25878787612197565b90508315611c4f5767ffffffffffffffff831660009081526005602090815260408083208d84528252808320858452825280832061ffff8c16845290915290208054611b7090612bea565b159050611bcf5767ffffffffffffffff831660009081526006602090815260408083208d845282528083208584529091528120805461ffff1691611bb383612eeb565b91906101000a81548161ffff021916908361ffff160217905550505b67ffffffffffffffff831660009081526005602090815260408083208d84528252808320858452825280832061ffff8c1684529091528120611c109161256b565b897f03528ed0c2a3ebc993b12ce3c16bb382f9c7d88ef7d8a1bf290eaf35955a12078a8a604051611c42929190612f09565b60405180910390a26107e0565b67ffffffffffffffff831660009081526005602090815260408083208d84528252808320858452825280832061ffff8c16845290915290208054611c9290612bea565b9050600003611cf35767ffffffffffffffff831660009081526006602090815260408083208d845282528083208584529091528120805461ffff1691611cd783612f2f565b91906101000a81548161ffff021916908361ffff160217905550505b67ffffffffffffffff831660009081526005602090815260408083208d84528252808320858452825280832061ffff8c1684529091529020611d358282612dde565b50897f52a608b3303a48862d07a73d82fa221318c0027fbbcfb1b2329bface3f19ff2b8a8a84604051611d6a93929190612f46565b60405180910390a250505050505050505050565b60c08101516020820181905281515111611d955750565b6000611da98260000151836020015161213d565b8260200151611db89190612f75565b8251909150611dc79082612231565b61ffff166040830152611ddb600282612f75565b8251909150611dea9082612231565b61ffff166060830152611dfe600282612f75565b8251909150611e0d9082612259565b63ffffffff166080830152611e23600482612f75565b8251909150600090611e359083612231565b61ffff169050611e46600283612f75565b60a084018190529150611e598183612f75565b60c0909301929092525050565b60008151601414611e7657600080fd5b50602001516c01000000000000000000000000900490565b600b80546001600160a01b0383811673ffffffffffffffffffffffffffffffffffffffff19831681179093556040519116919082907f8be0079c531659141344cd1fd0a4f28419497f9722a3daafe3b4186f6b6457e090600090a35050565b60608167ffffffffffffffff811115611f0857611f0861288d565b604051908082528060200260200182016040528015611f3b57816020015b6060815260200190600190039081611f265790505b50905060005b828110156120be578415612006576000848483818110611f6357611f63612d8d565b9050602002810190611f759190612f88565b611f8491602491600491612fcf565b611f8d91612ff9565b90508581146120045760405162461bcd60e51b815260206004820152603460248201527f6d756c746963616c6c3a20416c6c207265636f726473206d757374206861766560448201527f2061206d61746368696e67206e616d65686173680000000000000000000000006064820152608401611311565b505b6000803086868581811061201c5761201c612d8d565b905060200281019061202e9190612f88565b60405161203c929190612bda565b600060405180830381855af49150503d8060008114612077576040519150601f19603f3d011682016040523d82523d6000602084013e61207c565b606091505b50915091508161208b57600080fd5b8084848151811061209e5761209e612d8d565b6020026020010181905250505080806120b690613017565b915050611f41565b509392505050565b6040805160148082528183019092526060916020820181803683375050506c010000000000000000000000009290920260208301525090565b60006001600160e01b031982167fc86902330000000000000000000000000000000000000000000000000000000014806105b057506105b082612283565b6000815b8351811061215157612151613030565b600061215d85836122c1565b60ff16905061216d816001612f75565b6121779083612f75565b915080600003612187575061218d565b50612141565b6115938382612bc7565b82516060906121a68385612f75565b11156121b157600080fd5b60008267ffffffffffffffff8111156121cc576121cc61288d565b6040519080825280601f01601f1916602001820160405280156121f6576020820181803683370190505b50905060208082019086860101610b5a8282876122e5565b600061221b84848461233b565b61222687878561233b565b149695505050505050565b8151600090612241836002612f75565b111561224c57600080fd5b50016002015161ffff1690565b8151600090612269836004612f75565b111561227457600080fd5b50016004015163ffffffff1690565b60006001600160e01b031982167f691f34310000000000000000000000000000000000000000000000000000000014806105b057506105b08261235f565b60008282815181106122d5576122d5612d8d565b016020015160f81c905092915050565b6020811061231d57815183526122fc602084612f75565b9250612309602083612f75565b9150612316602082612bc7565b90506122e5565b905182516020929092036101000a6000190180199091169116179052565b825160009061234a8385612f75565b111561235557600080fd5b5091016020012090565b60006001600160e01b031982167f124a319c0000000000000000000000000000000000000000000000000000000014806105b057506105b08260006001600160e01b031982167fa8fa56820000000000000000000000000000000000000000000000000000000014806123fb57506001600160e01b031982167f5c98042b00000000000000000000000000000000000000000000000000000000145b806105b057506105b08260006001600160e01b031982167fbc1c58d10000000000000000000000000000000000000000000000000000000014806105b057506105b08260006001600160e01b031982167f3b3b57de0000000000000000000000000000000000000000000000000000000014806124a157506001600160e01b031982167ff1cb7e0600000000000000000000000000000000000000000000000000000000145b806105b057506105b08260006001600160e01b031982167f2203ab560000000000000000000000000000000000000000000000000000000014806105b057506105b08260006001600160e01b031982167fd700ff330000000000000000000000000000000000000000000000000000000014806105b057506105b08260006001600160e01b031982167f4fbf04330000000000000000000000000000000000000000000000000000000014806105b057506301ffc9a760e01b6001600160e01b03198316146105b0565b50805461257790612bea565b6000825580601f10612587575050565b601f0160209004906000526020600020908101906117a491905b808211156125b557600081556001016125a1565b5090565b80356001600160e01b0319811681146125d157600080fd5b919050565b6000602082840312156125e857600080fd5b610e81826125b9565b6001600160a01b03811681146117a457600080fd5b60006020828403121561261857600080fd5b8135610e81816125f1565b60008083601f84011261263557600080fd5b50813567ffffffffffffffff81111561264d57600080fd5b602083019150836020828501011115610c9557600080fd5b60008060006040848603121561267a57600080fd5b83359250602084013567ffffffffffffffff81111561269857600080fd5b6126a486828701612623565b9497909650939450505050565b6000806000806000606086880312156126c957600080fd5b85359450602086013567ffffffffffffffff808211156126e857600080fd5b6126f489838a01612623565b9096509450604088013591508082111561270d57600080fd5b5061271a88828901612623565b969995985093965092949392505050565b6000806040838503121561273e57600080fd5b8235915061274e602084016125b9565b90509250929050565b6000806040838503121561276a57600080fd5b50508035926020909101359150565b60005b8381101561279457818101518382015260200161277c565b50506000910152565b600081518084526127b5816020860160208601612779565b601f01601f19169290920160200192915050565b828152604060208201526000611593604083018461279d565b6000806000606084860312156127f757600080fd5b505081359360208301359350604090920135919050565b60006020828403121561282057600080fd5b5035919050565b602081526000610e81602083018461279d565b6000806000806060858703121561285057600080fd5b8435935060208501359250604085013567ffffffffffffffff81111561287557600080fd5b61288187828801612623565b95989497509550505050565b634e487b7160e01b600052604160045260246000fd5b6000806000606084860312156128b857600080fd5b8335925060208401359150604084013567ffffffffffffffff808211156128de57600080fd5b818601915086601f8301126128f257600080fd5b8135818111156129045761290461288d565b604051601f8201601f19908116603f0116810190838211818310171561292c5761292c61288d565b8160405282815289602084870101111561294557600080fd5b8260208601602083013760006020848301015280955050505050509250925092565b6000806040838503121561297a57600080fd5b8235612985816125f1565b91506020830135801515811461299a57600080fd5b809150509250929050565b6000806000606084860312156129ba57600080fd5b8335925060208401359150604084013561ffff811681146129da57600080fd5b809150509250925092565b60008083601f8401126129f757600080fd5b50813567ffffffffffffffff811115612a0f57600080fd5b6020830191508360208260051b8501011115610c9557600080fd5b60008060208385031215612a3d57600080fd5b823567ffffffffffffffff811115612a5457600080fd5b612a60858286016129e5565b90969095509350505050565b6000602080830181845280855180835260408601915060408160051b870101925083870160005b82811015612ac157603f19888603018452612aaf85835161279d565b94509285019290850190600101612a93565b5092979650505050505050565b60008060408385031215612ae157600080fd5b82359150602083013561299a816125f1565b600080600060408486031215612b0857600080fd5b83359250602084013567ffffffffffffffff811115612b2657600080fd5b6126a4868287016129e5565b600080600060608486031215612b4757600080fd5b83359250612b57602085016125b9565b915060408401356129da816125f1565b60008060408385031215612b7a57600080fd5b8235612b85816125f1565b9150602083013561299a816125f1565b60008251612ba7818460208701612779565b9190910192915050565b634e487b7160e01b600052601160045260246000fd5b818103818111156105b0576105b0612bb1565b8183823760009101908152919050565b600181811c90821680612bfe57607f821691505b602082108103612c1e57634e487b7160e01b600052602260045260246000fd5b50919050565b601f82111561158157600081815260208120601f850160051c81016020861015612c4b5750805b601f850160051c820191505b81811015612c6a57828155600101612c57565b505050505050565b67ffffffffffffffff831115612c8a57612c8a61288d565b612c9e83612c988354612bea565b83612c24565b6000601f841160018114612cd25760008515612cba5750838201355b600019600387901b1c1916600186901b178355611290565b600083815260209020601f19861690835b82811015612d035786850135825560209485019460019092019101612ce3565b5086821015612d205760001960f88860031b161c19848701351681555b505060018560011b0183555050505050565b81835281816020850137506000828201602090810191909152601f909101601f19169091010190565b604081526000612d6f604083018688612d32565b8281036020840152612d82818587612d32565b979650505050505050565b634e487b7160e01b600052603260045260246000fd5b602081526000611593602083018486612d32565b600067ffffffffffffffff808316818103612dd457612dd4612bb1565b6001019392505050565b815167ffffffffffffffff811115612df857612df861288d565b612e0c81612e068454612bea565b84612c24565b602080601f831160018114612e415760008415612e295750858301515b600019600386901b1c1916600185901b178555612c6a565b600085815260208120601f198616915b82811015612e7057888601518255948401946001909101908401612e51565b5085821015612e8e5787850151600019600388901b60f8161c191681555b5050505050600190811b01905550565b604081526000612eb1604083018661279d565b8281036020840152612ec4818587612d32565b9695505050505050565b600060208284031215612ee057600080fd5b8151610e81816125f1565b600061ffff821680612eff57612eff612bb1565b6000190192915050565b604081526000612f1c604083018561279d565b905061ffff831660208301529392505050565b600061ffff808316818103612dd457612dd4612bb1565b606081526000612f59606083018661279d565b61ffff851660208401528281036040840152612ec4818561279d565b808201808211156105b0576105b0612bb1565b6000808335601e19843603018112612f9f57600080fd5b83018035915067ffffffffffffffff821115612fba57600080fd5b602001915036819003821315610c9557600080fd5b60008085851115612fdf57600080fd5b83861115612fec57600080fd5b5050820193919092039150565b803560208310156105b057600019602084900360031b1b1692915050565b60006001820161302957613029612bb1565b5060010190565b634e487b7160e01b600052600160045260246000fdfea26469706673582212201b2a131a0c2f1c2511ccac9e6afe769e5958a5f4d4115f23617e408a3c4f859a64736f6c63430008110033",
  "devdoc": {
    "kind": "dev",
    "methods": {
      "ABI(bytes32,uint256)": {
        "params": {
          "contentTypes": "A bitwise OR of the ABI formats accepted by the caller.",
          "node": "The ENS node to query"
        },
        "returns": {
          "_0": "contentType The content type of the return value",
          "_1": "data The ABI data"
        }
      },
      "addr(bytes32)": {
        "params": {
          "node": "The ENS node to query."
        },
        "returns": {
          "_0": "The associated address."
        }
      },
      "clearRecords(bytes32)": {
        "params": {
          "node": "The node to update."
        }
      },
      "contenthash(bytes32)": {
        "params": {
          "node": "The ENS node to query."
        },
        "returns": {
          "_0": "The associated contenthash."
        }
      },
      "dnsRecord(bytes32,bytes32,uint16)": {
        "params": {
          "name": "the keccak-256 hash of the fully-qualified name for which to fetch the record",
          "node": "the namehash of the node for which to fetch the record",
          "resource": "the ID of the resource as per https://en.wikipedia.org/wiki/List_of_DNS_record_types"
        },
        "returns": {
          "_0": "the DNS record in wire format if present, otherwise empty"
        }
      },
      "hasDNSRecords(bytes32,bytes32)": {
        "params": {
          "name": "the namehash of the node for which to check the records",
          "node": "the namehash of the node for which to check the records"
        }
      },
      "interfaceImplementer(bytes32,bytes4)": {
        "params": {
          "interfaceID": "The EIP 165 interface ID to check for.",
          "node": "The ENS node to query."
        },
        "returns": {
          "_0": "The address that implements this interface, or 0 if the interface is unsupported."
        }
      },
      "isApprovedForAll(address,address)": {
        "details": "See {IERC1155-isApprovedForAll}."
      },
      "name(bytes32)": {
        "params": {
          "node": "The ENS node to query."
        },
        "returns": {
          "_0": "The associated name."
        }
      },
      "owner()": {
        "details": "Returns the address of the current owner."
      },
      "pubkey(bytes32)": {
        "params": {
          "node": "The ENS node to query"
        },
        "returns": {
          "x": "The X coordinate of the curve point for the public key.",
          "y": "The Y coordinate of the curve point for the public key."
        }
      },
      "renounceOwnership()": {
        "details": "Leaves the contract without owner. It will not be possible to call `onlyOwner` functions. Can only be called by the current owner. NOTE: Renouncing ownership will leave the contract without an owner, thereby disabling any functionality that is only available to the owner."
      },
      "setABI(bytes32,uint256,bytes)": {
        "params": {
          "contentType": "The content type of the ABI",
          "data": "The ABI data.",
          "node": "The node to update."
        }
      },
      "setAddr(bytes32,address)": {
        "params": {
          "a": "The address to set.",
          "node": "The node to update."
        }
      },
      "setApprovalForAll(address,bool)": {
        "details": "See {IERC1155-setApprovalForAll}."
      },
      "setContenthash(bytes32,bytes)": {
        "params": {
          "hash": "The contenthash to set",
          "node": "The node to update."
        }
      },
      "setDNSRecords(bytes32,bytes)": {
        "params": {
          "data": "the DNS wire format records to set",
          "node": "the namehash of the node for which to set the records"
        }
      },
      "setInterface(bytes32,bytes4,address)": {
        "params": {
          "implementer": "The address of a contract that implements this interface for this node.",
          "interfaceID": "The EIP 165 interface ID.",
          "node": "The node to update."
        }
      },
      "setName(bytes32,string)": {
        "params": {
          "node": "The node to update."
        }
      },
      "setPubkey(bytes32,bytes32,bytes32)": {
        "params": {
          "node": "The ENS node to query",
          "x": "the X coordinate of the curve point for the public key.",
          "y": "the Y coordinate of the curve point for the public key."
        }
      },
      "setText(bytes32,string,string)": {
        "params": {
          "key": "The key to set.",
          "node": "The node to update.",
          "value": "The text data value to set."
        }
      },
      "setZonehash(bytes32,bytes)": {
        "params": {
          "hash": "The zonehash to set",
          "node": "The node to update."
        }
      },
      "text(bytes32,string)": {
        "params": {
          "key": "The text data key to query.",
          "node": "The ENS node to query."
        },
        "returns": {
          "_0": "The associated text data."
        }
      },
      "transferOwnership(address)": {
        "details": "Transfers ownership of the contract to a new account (`newOwner`). Can only be called by the current owner."
      },
      "zonehash(bytes32)": {
        "params": {
          "node": "The ENS node to query."
        },
        "returns": {
          "_0": "The associated contenthash."
        }
      }
    },
    "version": 1
  },
  "userdoc": {
    "kind": "user",
    "methods": {
      "ABI(bytes32,uint256)": {
        "notice": "Returns the ABI associated with an ENS node. Defined in EIP205."
      },
      "addr(bytes32)": {
        "notice": "Returns the address associated with an ENS node."
      },
      "clearRecords(bytes32)": {
        "notice": "Increments the record version associated with an ENS node. May only be called by the owner of that node in the ENS registry."
      },
      "contenthash(bytes32)": {
        "notice": "Returns the contenthash associated with an ENS node."
      },
      "dnsRecord(bytes32,bytes32,uint16)": {
        "notice": "Obtain a DNS record."
      },
      "hasDNSRecords(bytes32,bytes32)": {
        "notice": "Check if a given node has records."
      },
      "interfaceImplementer(bytes32,bytes4)": {
        "notice": "Returns the address of a contract that implements the specified interface for this name. If an implementer has not been set for this interfaceID and name, the resolver will query the contract at `addr()`. If `addr()` is set, a contract exists at that address, and that contract implements EIP165 and returns `true` for the specified interfaceID, its address will be returned."
      },
      "name(bytes32)": {
        "notice": "Returns the name associated with an ENS node, for reverse records. Defined in EIP181."
      },
      "pubkey(bytes32)": {
        "notice": "Returns the SECP256k1 public key associated with an ENS node. Defined in EIP 619."
      },
      "setABI(bytes32,uint256,bytes)": {
        "notice": "Sets the ABI associated with an ENS node. Nodes may have one ABI of each content type. To remove an ABI, set it to the empty string."
      },
      "setAddr(bytes32,address)": {
        "notice": "Sets the address associated with an ENS node. May only be called by the owner of that node in the ENS registry."
      },
      "setContenthash(bytes32,bytes)": {
        "notice": "Sets the contenthash associated with an ENS node. May only be called by the owner of that node in the ENS registry."
      },
      "setDNSRecords(bytes32,bytes)": {
        "notice": "Set one or more DNS records.  Records are supplied in wire-format. Records with the same node/name/resource must be supplied one after the other to ensure the data is updated correctly. For example, if the data was supplied:     a.example.com IN A 1.2.3.4     a.example.com IN A 5.6.7.8     www.example.com IN CNAME a.example.com. then this would store the two A records for a.example.com correctly as a single RRSET, however if the data was supplied:     a.example.com IN A 1.2.3.4     www.example.com IN CNAME a.example.com.     a.example.com IN A 5.6.7.8 then this would store the first A record, the CNAME, then the second A record which would overwrite the first."
      },
      "setInterface(bytes32,bytes4,address)": {
        "notice": "Sets an interface associated with a name. Setting the address to 0 restores the default behaviour of querying the contract at `addr()` for interface support."
      },
      "setName(bytes32,string)": {
        "notice": "Sets the name associated with an ENS node, for reverse records. May only be called by the owner of that node in the ENS registry."
      },
      "setPubkey(bytes32,bytes32,bytes32)": {
        "notice": "Sets the SECP256k1 public key associated with an ENS node."
      },
      "setText(bytes32,string,string)": {
        "notice": "Sets the text data associated with an ENS node and key. May only be called by the owner of that node in the ENS registry."
      },
      "setZonehash(bytes32,bytes)": {
        "notice": "setZonehash sets the hash for the zone. May only be called by the owner of that node in the ENS registry."
      },
      "text(bytes32,string)": {
        "notice": "Returns the text data associated with an ENS node and key."
      },
      "zonehash(bytes32)": {
        "notice": "zonehash obtains the hash for the zone."
      }
    },
    "notice": "A more advanced resolver that allows for multiple records of the same domain.",
    "version": 1
  },
  "storageLayout": {
    "storage": [
      {
        "astId": 12803,
        "contract": "contracts/resolvers/PublicResolver.sol:PublicResolver",
        "label": "recordVersions",
        "offset": 0,
        "slot": "0",
        "type": "t_mapping(t_bytes32,t_uint64)"
      },
      {
        "astId": 12897,
        "contract": "contracts/resolvers/PublicResolver.sol:PublicResolver",
        "label": "versionable_abis",
        "offset": 0,
        "slot": "1",
        "type": "t_mapping(t_uint64,t_mapping(t_bytes32,t_mapping(t_uint256,t_bytes_storage)))"
      },
      {
        "astId": 13051,
        "contract": "contracts/resolvers/PublicResolver.sol:PublicResolver",
        "label": "versionable_addresses",
        "offset": 0,
        "slot": "2",
        "type": "t_mapping(t_uint64,t_mapping(t_bytes32,t_mapping(t_uint256,t_bytes_storage)))"
      },
      {
        "astId": 13242,
        "contract": "contracts/resolvers/PublicResolver.sol:PublicResolver",
        "label": "versionable_hashes",
        "offset": 0,
        "slot": "3",
        "type": "t_mapping(t_uint64,t_mapping(t_bytes32,t_bytes_storage))"
      },
      {
        "astId": 13332,
        "contract": "contracts/resolvers/PublicResolver.sol:PublicResolver",
        "label": "versionable_zonehashes",
        "offset": 0,
        "slot": "4",
        "type": "t_mapping(t_uint64,t_mapping(t_bytes32,t_bytes_storage))"
      },
      {
        "astId": 13342,
        "contract": "contracts/resolvers/PublicResolver.sol:PublicResolver",
        "label": "versionable_records",
        "offset": 0,
        "slot": "5",
        "type": "t_mapping(t_uint64,t_mapping(t_bytes32,t_mapping(t_bytes32,t_mapping(t_uint16,t_bytes_storage))))"
      },
      {
        "astId": 13350,
        "contract": "contracts/resolvers/PublicResolver.sol:PublicResolver",
        "label": "versionable_nameEntriesCount",
        "offset": 0,
        "slot": "6",
        "type": "t_mapping(t_uint64,t_mapping(t_bytes32,t_mapping(t_bytes32,t_uint16)))"
      },
      {
        "astId": 14088,
        "contract": "contracts/resolvers/PublicResolver.sol:PublicResolver",
        "label": "versionable_interfaces",
        "offset": 0,
        "slot": "7",
        "type": "t_mapping(t_uint64,t_mapping(t_bytes32,t_mapping(t_bytes4,t_address)))"
      },
      {
        "astId": 14280,
        "contract": "contracts/resolvers/PublicResolver.sol:PublicResolver",
        "label": "versionable_names",
        "offset": 0,
        "slot": "8",
        "type": "t_mapping(t_uint64,t_mapping(t_bytes32,t_string_storage))"
      },
      {
        "astId": 14367,
        "contract": "contracts/resolvers/PublicResolver.sol:PublicResolver",
        "label": "versionable_pubkeys",
        "offset": 0,
        "slot": "9",
        "type": "t_mapping(t_uint64,t_mapping(t_bytes32,t_struct(PublicKey)14360_storage))"
      },
      {
        "astId": 14470,
        "contract": "contracts/resolvers/PublicResolver.sol:PublicResolver",
        "label": "versionable_texts",
        "offset": 0,
        "slot": "10",
        "type": "t_mapping(t_uint64,t_mapping(t_bytes32,t_mapping(t_string_memory_ptr,t_string_storage)))"
      },
      {
        "astId": 444,
        "contract": "contracts/resolvers/PublicResolver.sol:PublicResolver",
        "label": "_owner",
        "offset": 0,
        "slot": "11",
        "type": "t_address"
      },
      {
        "astId": 12383,
        "contract": "contracts/resolvers/PublicResolver.sol:PublicResolver",
        "label": "trustedControllers",
        "offset": 0,
        "slot": "12",
        "type": "t_mapping(t_address,t_bool)"
      },
      {
        "astId": 12392,
        "contract": "contracts/resolvers/PublicResolver.sol:PublicResolver",
        "label": "_operatorApprovals",
        "offset": 0,
        "slot": "13",
        "type": "t_mapping(t_address,t_mapping(t_address,t_bool))"
      }
    ],
    "types": {
      "t_address": {
        "encoding": "inplace",
        "label": "address",
        "numberOfBytes": "20"
      },
      "t_bool": {
        "encoding": "inplace",
        "label": "bool",
        "numberOfBytes": "1"
      },
      "t_bytes32": {
        "encoding": "inplace",
        "label": "bytes32",
        "numberOfBytes": "32"
      },
      "t_bytes4": {
        "encoding": "inplace",
        "label": "bytes4",
        "numberOfBytes": "4"
      },
      "t_bytes_storage": {
        "encoding": "bytes",
        "label": "bytes",
        "numberOfBytes": "32"
      },
      "t_mapping(t_address,t_bool)": {
        "encoding": "mapping",
        "key": "t_address",
        "label": "mapping(address => bool)",
        "numberOfBytes": "32",
        "value": "t_bool"
      },
      "t_mapping(t_address,t_mapping(t_address,t_bool))": {
        "encoding": "mapping",
        "key": "t_address",
        "label": "mapping(address => mapping(address => bool))",
        "numberOfBytes": "32",
        "value": "t_mapping(t_address,t_bool)"
      },
      "t_mapping(t_bytes32,t_bytes_storage)": {
        "encoding": "mapping",
        "key": "t_bytes32",
        "label": "mapping(bytes32 => bytes)",
        "numberOfBytes": "32",
        "value": "t_bytes_storage"
      },
      "t_mapping(t_bytes32,t_mapping(t_bytes32,t_mapping(t_uint16,t_bytes_storage)))": {
        "encoding": "mapping",
        "key": "t_bytes32",
        "label": "mapping(bytes32 => mapping(bytes32 => mapping(uint16 => bytes)))",
        "numberOfBytes": "32",
        "value": "t_mapping(t_bytes32,t_mapping(t_uint16,t_bytes_storage))"
      },
      "t_mapping(t_bytes32,t_mapping(t_bytes32,t_uint16))": {
        "encoding": "mapping",
        "key": "t_bytes32",
        "label": "mapping(bytes32 => mapping(bytes32 => uint16))",
        "numberOfBytes": "32",
        "value": "t_mapping(t_bytes32,t_uint16)"
      },
      "t_mapping(t_bytes32,t_mapping(t_bytes4,t_address))": {
        "encoding": "mapping",
        "key": "t_bytes32",
        "label": "mapping(bytes32 => mapping(bytes4 => address))",
        "numberOfBytes": "32",
        "value": "t_mapping(t_bytes4,t_address)"
      },
      "t_mapping(t_bytes32,t_mapping(t_string_memory_ptr,t_string_storage))": {
        "encoding": "mapping",
        "key": "t_bytes32",
        "label": "mapping(bytes32 => mapping(string => string))",
        "numberOfBytes": "32",
        "value": "t_mapping(t_string_memory_ptr,t_string_storage)"
      },
      "t_mapping(t_bytes32,t_mapping(t_uint16,t_bytes_storage))": {
        "encoding": "mapping",
        "key": "t_bytes32",
        "label": "mapping(bytes32 => mapping(uint16 => bytes))",
        "numberOfBytes": "32",
        "value": "t_mapping(t_uint16,t_bytes_storage)"
      },
      "t_mapping(t_bytes32,t_mapping(t_uint256,t_bytes_storage))": {
        "encoding": "mapping",
        "key": "t_bytes32",
        "label": "mapping(bytes32 => mapping(uint256 => bytes))",
        "numberOfBytes": "32",
        "value": "t_mapping(t_uint256,t_bytes_storage)"
      },
      "t_mapping(t_bytes32,t_string_storage)": {
        "encoding": "mapping",
        "key": "t_bytes32",
        "label": "mapping(bytes32 => string)",
        "numberOfBytes": "32",
        "value": "t_string_storage"
      },
      "t_mapping(t_bytes32,t_struct(PublicKey)14360_storage)": {
        "encoding": "mapping",
        "key": "t_bytes32",
        "label": "mapping(bytes32 => struct PubkeyResolver.PublicKey)",
        "numberOfBytes": "32",
        "value": "t_struct(PublicKey)14360_storage"
      },
      "t_mapping(t_bytes32,t_uint16)": {
        "encoding": "mapping",
        "key": "t_bytes32",
        "label": "mapping(bytes32 => uint16)",
        "numberOfBytes": "32",
        "value": "t_uint16"
      },
      "t_mapping(t_bytes32,t_uint64)": {
        "encoding": "mapping",
        "key": "t_bytes32",
        "label": "mapping(bytes32 => uint64)",
        "numberOfBytes": "32",
        "value": "t_uint64"
      },
      "t_mapping(t_bytes4,t_address)": {
        "encoding": "mapping",
        "key": "t_bytes4",
        "label": "mapping(bytes4 => address)",
        "numberOfBytes": "32",
        "value": "t_address"
      },
      "t_mapping(t_string_memory_ptr,t_string_storage)": {
        "encoding": "mapping",
        "key": "t_string_memory_ptr",
        "label": "mapping(string => string)",
        "numberOfBytes": "32",
        "value": "t_string_storage"
      },
      "t_mapping(t_uint16,t_bytes_storage)": {
        "encoding": "mapping",
        "key": "t_uint16",
        "label": "mapping(uint16 => bytes)",
        "numberOfBytes": "32",
        "value": "t_bytes_storage"
      },
      "t_mapping(t_uint256,t_bytes_storage)": {
        "encoding": "mapping",
        "key": "t_uint256",
        "label": "mapping(uint256 => bytes)",
        "numberOfBytes": "32",
        "value": "t_bytes_storage"
      },
      "t_mapping(t_uint64,t_mapping(t_bytes32,t_bytes_storage))": {
        "encoding": "mapping",
        "key": "t_uint64",
        "label": "mapping(uint64 => mapping(bytes32 => bytes))",
        "numberOfBytes": "32",
        "value": "t_mapping(t_bytes32,t_bytes_storage)"
      },
      "t_mapping(t_uint64,t_mapping(t_bytes32,t_mapping(t_bytes32,t_mapping(t_uint16,t_bytes_storage))))": {
        "encoding": "mapping",
        "key": "t_uint64",
        "label": "mapping(uint64 => mapping(bytes32 => mapping(bytes32 => mapping(uint16 => bytes))))",
        "numberOfBytes": "32",
        "value": "t_mapping(t_bytes32,t_mapping(t_bytes32,t_mapping(t_uint16,t_bytes_storage)))"
      },
      "t_mapping(t_uint64,t_mapping(t_bytes32,t_mapping(t_bytes32,t_uint16)))": {
        "encoding": "mapping",
        "key": "t_uint64",
        "label": "mapping(uint64 => mapping(bytes32 => mapping(bytes32 => uint16)))",
        "numberOfBytes": "32",
        "value": "t_mapping(t_bytes32,t_mapping(t_bytes32,t_uint16))"
      },
      "t_mapping(t_uint64,t_mapping(t_bytes32,t_mapping(t_bytes4,t_address)))": {
        "encoding": "mapping",
        "key": "t_uint64",
        "label": "mapping(uint64 => mapping(bytes32 => mapping(bytes4 => address)))",
        "numberOfBytes": "32",
        "value": "t_mapping(t_bytes32,t_mapping(t_bytes4,t_address))"
      },
      "t_mapping(t_uint64,t_mapping(t_bytes32,t_mapping(t_string_memory_ptr,t_string_storage)))": {
        "encoding": "mapping",
        "key": "t_uint64",
        "label": "mapping(uint64 => mapping(bytes32 => mapping(string => string)))",
        "numberOfBytes": "32",
        "value": "t_mapping(t_bytes32,t_mapping(t_string_memory_ptr,t_string_storage))"
      },
      "t_mapping(t_uint64,t_mapping(t_bytes32,t_mapping(t_uint256,t_bytes_storage)))": {
        "encoding": "mapping",
        "key": "t_uint64",
        "label": "mapping(uint64 => mapping(bytes32 => mapping(uint256 => bytes)))",
        "numberOfBytes": "32",
        "value": "t_mapping(t_bytes32,t_mapping(t_uint256,t_bytes_storage))"
      },
      "t_mapping(t_uint64,t_mapping(t_bytes32,t_string_storage))": {
        "encoding": "mapping",
        "key": "t_uint64",
        "label": "mapping(uint64 => mapping(bytes32 => string))",
        "numberOfBytes": "32",
        "value": "t_mapping(t_bytes32,t_string_storage)"
      },
      "t_mapping(t_uint64,t_mapping(t_bytes32,t_struct(PublicKey)14360_storage))": {
        "encoding": "mapping",
        "key": "t_uint64",
        "label": "mapping(uint64 => mapping(bytes32 => struct PubkeyResolver.PublicKey))",
        "numberOfBytes": "32",
        "value": "t_mapping(t_bytes32,t_struct(PublicKey)14360_storage)"
      },
      "t_string_memory_ptr": {
        "encoding": "bytes",
        "label": "string",
        "numberOfBytes": "32"
      },
      "t_string_storage": {
        "encoding": "bytes",
        "label": "string",
        "numberOfBytes": "32"
      },
      "t_struct(PublicKey)14360_storage": {
        "encoding": "inplace",
        "label": "struct PubkeyResolver.PublicKey",
        "members": [
          {
            "astId": 14357,
            "contract": "contracts/resolvers/PublicResolver.sol:PublicResolver",
            "label": "x",
            "offset": 0,
            "slot": "0",
            "type": "t_bytes32"
          },
          {
            "astId": 14359,
            "contract": "contracts/resolvers/PublicResolver.sol:PublicResolver",
            "label": "y",
            "offset": 0,
            "slot": "1",
            "type": "t_bytes32"
          }
        ],
        "numberOfBytes": "64"
      },
      "t_uint16": {
        "encoding": "inplace",
        "label": "uint16",
        "numberOfBytes": "2"
      },
      "t_uint256": {
        "encoding": "inplace",
        "label": "uint256",
        "numberOfBytes": "32"
      },
      "t_uint64": {
        "encoding": "inplace",
        "label": "uint64",
        "numberOfBytes": "8"
      }
    }
  }
}